:100000004D424E014D3448500005040001002200CD
:100010006000000000C000000000000000000000C0
:100020000000EEEE000000000000000000000000F4
:1000300001000005000000000000000000000000BA
:100040000200100100002B000000000000AC0000C6
:10005000030010012B00300000AC00000014000071
:1000600000380020ED020000000000000000000049
:100070000000000000000000000000000000000080
:100080000000000000000000000000000000000070
:10009000000000000000000000000000B5010000AA
:1000A000E1010000FD010000B9010000CD010000E8
:1000B00000000000002934D00123002210B488423F
:1000C0002CD301242407A14204D2814202D2090187
:1000D0001B01F8E7E400A14204D2814202D24900A8
:1000E0005B00F8E7884201D3401A1A434C08A0424B
:1000F00002D3001B5C0822438C08A04202D3001BE1
:100100009C082243CC08A04202D3001BDC082243F7
:10011000002803D01B0901D00909E3E7101C10BC1B
:100120007047002801D00020C04307B4024802A154
:100130004018029003BDC046D90000000029F0D04D
:1001400003B5FFF7B9FF0EBC4243891A1847C046F2
:10015000002941D010B4041C4C40A44601230022C5
:10016000002900D54942002800D5404288422CD3BE
:1001700001242407A14204D2814202D209011B01B9
:10018000F8E7E400A14204D2814202D249005B00B8
:10019000F8E7884201D3401A1A434C08A04202D320
:1001A000001B5C0822438C08A04202D3001B9C0861
:1001B0002243CC08A04202D3001BDC0822430028C3
:1001C00003D01B0901D00909E3E7101C6446002C89
:1001D00000D5404210BC7047002806D003DB002049
:1001E000C043400801E08020000607B4024802A195
:1001F0004018029003BDC046190000000029EBD052
:1002000003B5FFF7A7FF0EBC4243891A1847C04643
:100210007047C046FEE70000034B01225A70A0233E
:100220000022DB051A707047CC100020034B01221E
:100230009A70A0230022DB059A707047CC10002032
:1002400008B5044B01221A70034B0022DA7700F044
:1002500057FD08BDCC1000200800005038B580259F
:10026000ED052B79DBB2002B0CD130490B604B60D4
:100270002B89081C9BB28B608A680C30103107F008
:10028000DFFB47E0012B0DD1284BD968002941D075
:100290005A68186982423DDA5A68501C58602B7AB5
:1002A0008B5437E0022B30D1204CE368002B2AD04E
:1002B000226821698A420CDA22689B5C1BBAEB60D7
:1002C000A3682068C01880B207F016FC23680133C9
:1002D00017E0A2682368201C211CD2180C301031B2
:1002E00007F0AEFBE368002B0DD0A16822688A18E6
:1002F000A2601B781BBAEB60A06880B207F0FCFB21
:100300000123236006E0EB6004E0032B02D1074BDE
:1003100000225A60C0468023DB0501221A70C046C5
:1003200002221A7000221A7038BDC046EC0200206A
:1003300080230222DB05FF321A600421024AFF31CA
:10034000118000221A70704706000040F8B5A02303
:10035000DB059B684A4A1F21DBB21160D12B0BD011
:10036000D02B01D80133DBB2A022D2059168FF2047
:10037000814319439160F1E70023424A42499A18A8
:100380008A4204D24149C95804331160F5E7404B11
:10039000404A191D043B934203D200221A600B1CF1
:1003A000F6E7EFF308823C4B191D043B9A4203D950
:1003B0003A4818600B1CF7E7FFF7BAFF384939488D
:1003C000053989B280B204F061FD374C374D012305
:1003D0005B4223716371A371E3712B1C3C331A7868
:1003E0002B1C3D331B781B02134398423FD107F06F
:1003F0000FFB2F4B2F4918882F4A88420BD06E7D58
:1004000018882B7D36023343984204D113889BB25F
:1004100023711B0A637113888B421BD0EE7DA87D6C
:10042000138836023043834214D100200423013B59
:10043000DBB2FF2B07D0214EEF18F65C3F79B742B5
:10044000F5D10120F3E7002804D013889BB2A371F3
:100450001B0AE371637922791B0213438B4206D096
:10046000E279A37912021A43124B9A4204D1144B37
:1004700002221A6062B6FEE700F082F8F7E7C04693
:100480002800005000000020EC0200203CA40000E6
:10049000F0020020C810002014110020CDCDCDCDD9
:1004A00000C0000000000000D0100020C0BF00000D
:1004B000FEAB0000FFFF0000BEBF000000AC00006C
:1004C00000E100E0014B18607047C046D8100020E2
:1004D000014B18687047C046D8100020014B1860C7
:1004E0007047C046DC100020014B18687047C046BA
:1004F000DC100020014B18687047C0460000002047
:1005000038B5114C256805F097F8A862256805F004
:1005100097F8E862256805F097F86861256805F0A6
:1005200097F8A861256805F0ABF8084923680968C1
:100530001A1CE8320631E861116002221A67D033D2
:1005400003221A6038BDC04600000020DC100020E5
:1005500008B502F091FE021E05D10749A9230B71CF
:1005600007F0FEF9FEE7054B1B6803CB04F006FD20
:10057000FFF7C6FF08BDC0465F050020D802002077
:1005800037B507F07FF86C460734207009F086FD18
:1005900009F0F0FD02F014FEFFF7DAFF07F072F841
:1005A000051C0E2800D90E25E8B2034B8200D35853
:1005B000211C98472570F1E7040000200F4B3221E1
:1005C0001B680022D9676420191D9A670431886767
:1005D000CA6702208031086001204860181C012190
:1005E000943049420160826001618261A83304381D
:1005F0000160826001611A607047C04600000020FF
:10060000F7B500AF3960786005F0EAFA83000A3385
:10061000DB08DB006946C91A8D46041C684605F0F4
:10062000E7FA63000833DB086D46DB00EA1A9546FB
:10063000684605F0FBFA00226E46111C013C06D309
:10064000A300EB58C9186300F35AD218F6E72C4CF4
:10065000022025682B1C8C331C1C0C3C266801389E
:10066000632E0ADD002626600126B44676429E608F
:1006700000261E6166464640AE6726680136266043
:100680001C698C4200D219619E688E4200D9996023
:100690001C68012C09DD1B4E00241C609E611C623D
:1006A00001262C1C08344640E6671C681E6A01348B
:1006B0001C60964200D21A629C69944200D99A61E9
:1006C000043B0028C8D10E4E7C6833683E68996FA1
:1006D000BD468A009A18111C983190320968126838
:1006E0008A1A22801A1C0832D26F92009B181A1C98
:1006F000A832A03312681B68D31A3380F7BDC046F6
:1007000000000020FFFF0000F0B585B01F1C0AAB01
:100710001B78151C01910393041C04F031FB1E4B44
:10072000281C1B680021DA68920009F0C3FD019EB5
:10073000002E0CD0201C05F0BBF8184B281C1B68A1
:10074000391C5A69002307F075FB013EF0E7002CC5
:100750000FD1124B1B685F69DB69029304F05AFFEB
:10076000061C04F061FF0299031C321C381C07F0C0
:1007700049FA281C0021019A07F0B0FB039B012BCA
:1007800008D1002C06D1054B201C1D6805F0C2F9CC
:10079000EC35286005B0F0BDD80200200000002034
:1007A000F0B589B0059106920793049007F00CFA12
:1007B000234B80791B6802905A699B6905985A43BC
:1007C0000021920009F076FD029F013F7A1C2BD098
:1007D000049805F06DF81A4B1E6872690192019B2E
:1007E000013B0393F1D3B469164B059AE518039BBB
:1007F0006343ED18AD005519013C13D3B368019A5A
:100800005343E3180133069A9B0098582B68181835
:100810002860002F04D10299FFF74CFC00042860E7
:10082000043DE9E7039AD9E7079B012B06D1064B64
:1008300004981C6805F06EF9F034206009B0F0BD32
:10084000D8020020FFFFFF3F0000002030B5214DFF
:1008500085B02B681A1CCE321178663A002904D173
:10086000191CB0310978002901D0002111701478C9
:10087000002C1DD0D96E002001919A6B164902926E
:100880001B6B01AA039303234B707C235B42CB7049
:1008900010230B7107F064F82B680024DA6E196FCF
:1008A0008A4202DC0132DA6610E0DC6601240DE0E7
:1008B0009A6B1B6B0949019202930920642301AAD8
:1008C0000B71039407F04CF82B68DC66201C05B014
:1008D00030BDC046000000208C00002093000020A6
:1008E000F0B593B004AF3A61F86007F079F96C4E57
:1008F00069463368B8601C68796004346400221C5F
:100900000832D208D200881A5A688546043252004A
:10091000131C0833DB08DB00C01A04AD854604A9AC
:100920007961081C002109F0C5FC221C281C00214B
:1009300009F0C0FC5B4CF86823685A69191CDB6934
:100940000090281D01907869303104300290386998
:1009500003F05AFB336838609A6891001A6823687C
:1009600001324A435869002109F0A4FC2068436D14
:100970006430036008F098FBBA682368127B5869FA
:10098000019500927A69191C02925C313A69303300
:1009900003F0A0FC7B689D4607F02EF9051C07F0CC
:1009A0000FFC2B79002B0CD074300378002B08D16E
:1009B00022683023FF33D35C012B02D0012004F0E6
:1009C000F9FB336838495A6818684A709A68CB78D6
:1009D0007F250870AB4302208024034364422343F5
:1009E000CB7053238A700B7101323B6952009A1805
:1009F000012006F0B5FF381C00212022183009F034
:100A000059FC3368186859689A6838767976BA76E6
:100A10000533DB7F3969FB767B7F0220AB430132F4
:100A2000034352008A181C437C77391C0092002231
:100A300001201831131C06F059FF02F0C5FB02F02B
:100A4000E1FBFFF703FF002826D1164C2368586905
:100A500004F0D6FF2568281C291C5C31303003F0D7
:100A60001BFC23682866186E04F028FF04F08CFD38
:100A70003A68002A07D12368F8681A1C30321B68CC
:100A8000396907F027F9022004F0C2FB20686430BE
:100A900008F00AFB052000E00420BD460FB0F0BDC1
:100AA000D80200200000002058050020F0B5940076
:100AB000231C0A3385B0DB08DB006946C91A02AF84
:100AC0008D4602AA061C7A60101C0021221C09F027
:100AD000F1FB231C0833DB08DB006946C91A8D468D
:100AE00002AD281C221C002109F0E4FB0C4C301C38
:100AF0002368D96A9A6A5C3300910193291C7B6848
:100B000008F0F4FA301C02F0E9FB2368301C9A6A02
:100B1000DB6A291C00937B6807F056FDBD46F7BDD4
:100B20000000002070B50C1C151C1E1C07F0A8FF4F
:100B30000B4B201C1B68996ADA6A08F0A5F8201C88
:100B400008F086FC201C08F099F9291C321C201C96
:100B500008F036FA291C201C03F0C6F970BDC04607
:100B60000000002038B509F045FA051C012009F005
:100B700055FA041C281C04F0EBF8201C04F0F4F8CF
:100B800038BD38B509F030FB09F03CFA051C0020EF
:100B900009F044FA041C281C04F0DAF8002004F0E0
:100BA000D9FE201C04F0E0F804F0E6FA38BD10B5D8
:100BB000A4B08C22041C002101A809F07BFB01A831
:100BC000211C08F03DFA08F067FA01A8211C02F088
:100BD000F5FB24B010BD0000F8B5071C07F0F0FAD3
:100BE000434E34682379002B02D0012B2AD063E0D6
:100BF000404A211C1268EC310D68011D1278C96F42
:100C00002260002905DC21693B4B994202D023690F
:100C100001332361236993424EDD0830C36F002BFB
:100C20004AD1221C74321370391CA2690420FFF7C8
:100C3000B7FD04F017FB012004F03AFE04F06AFC53
:100C400001232CE02B4B1F687B782360231CF0339F
:100C50001D682069198B0130FFF7D0FA002906D1F1
:100C60002369002B03DD231CEC331B68ED18231CC8
:100C7000FF33DB7A012B04D0231CE4331B88002BC9
:100C800005D03B782360EC342568002307E0226917
:100C9000194B9A4210D02369013323610CE031686B
:100CA0000022081CFF30C2720B710A6113490E3317
:100CB000101C0B7106F054FE3368186804F0F6FF40
:100CC000041C281C05F016F8241A002C09DD3368D2
:100CD000186804F0EBFF041C281C05F00BF8201A20
:100CE00000E0012004F066FA04F086FAF8BDC04680
:100CF00000000020DC100020FFFFFF7F5F050020C8
:100D000008B5084B30221B68FF329A5C002A08D1D4
:100D10001B790420012B02D0002B02D1022004F009
:100D20009FFD08BD00000020F0B587B006F064FF0D
:100D3000071C07F045FA031DDA6FA44B002A07D100
:100D400088300468621E9441E4B2002C05D000E0B3
:100D500001241A680021B83205E01A68B832116817
:100D6000FE2901DC013111601B6800211A1CCC3204
:100D700015881180183A029511708C4204D094495C
:100D80000968C97C002958D0181CB3300178C9B251
:100D9000002908D003785BB2022B00D00123137026
:100DA000002303700EE11E1CB0363578002D09D0EB
:100DB000012515701A1CB132BC33017031701170ED
:100DC000196000E1002C38D1191CBC310D68002DD0
:100DD00008DD013D012D01D00D602EE003230C60E4
:100DE0001370F0E01A1CE83212681188794A9142B7
:100DF00023D01A1CC8321188774A1268D2888A42D6
:100E00001BD8734D2868027C181CB83000689042CB
:100E100013DB05AA1180CA331B8870495380022353
:100E20004B70CB70201C15230B7106F099FD674B9E
:100E30002A681B68527CBC331A60654E3368987C04
:100E4000002800D0BEE0614D002C22D12A689B7F93
:100E5000C43212689A4214DB61491223201C221CFE
:100E60000B7106F07DFD2A683068131CC0331968C9
:100E700001311960C07F814203DB1C60B432022360
:100E800013702A680023111CB231C4320B70136036
:100E90003DE02B681A1CBC3210602A321278002AFE
:100EA00035D0191CC831098805AA1180CA331B889E
:100EB0004A49538002234B70CB7019230B7106F003
:100EC0004FFD2B683268191CC8310D88908B16397C
:100ED000854214D2181CCA300588108D85420ED266
:100EE000908D029D85420ADA097800290FD1C4331A
:100EF0001968927F91420ADA0131196007E00122F4
:100F00000A70191C0022C431C0330A601A602F4EC7
:100F10003268131CE6331B78002B53D13B79002B2E
:100F20004ED0131CB0331D78002D4BD1284F106BC1
:100F30003B683A689B8A118B9C463B68528BDB8AE4
:100F40000093634606F0FAFD3B6803909B8C326881
:100F50009C463B68106BDB8C3A68118C528C00937A
:100F6000634606F0EBFD33681A1CC8321188039AF9
:100F7000CA33914207DA1A88824204DA3A68029840
:100F8000528D904210DB05AA11801B8813495380B3
:100F900002234B70CB70002017230B7106F0E0FC8E
:100FA00033680122B1331A7033681A1CB1321278D7
:100FB000002A07D0002C05D0B03301221A7002E0BD
:100FC000B13213700125281C07B0F0BD00000020CD
:100FD000D8100020FFFF0000DC1000208C00002053
:100FE0005F050020F0B58FB000AF786303F0AAFE74
:100FF000061C03F0BFFE386103F0B0FE9F4B786023
:101000001B686846DC68231C0E33DB08DB00C01A53
:1010100085466D463D637279A218131C0E33DB08BA
:101020005500DB00C01A2B1C0E33DB08DB00F86216
:101030008546C01AC11A85468D4678626846786131
:101040000021F86A09F036F9012149422A1C786A20
:1010500009F030F98A492A1C786909F02BF9221C19
:10106000386B396909F0E4F87C6B002C11D1854CA0
:10107000B379082023707379211C6370A3707F23D8
:101080005B42E3703A6BD223237106F069FCB379BB
:10109000CBE040250024BD61FC6100210122386BBA
:1010A00005F06AF8032004F003FC744B75491B68D3
:1010B0001D6858689A680423CB7051230B71724BDA
:1010C0008A701B6801325B69920048709A1802208E
:1010D0000D7006F045FCB479BC62BC6A013C3C6210
:1010E00000D291E07379013B7B637C6B013400D1CA
:1010F00087E03D6A73797C6B6B437D69E3185B0025
:101100005A5B624B9A4278D003F01CFE5E4BBC6A7D
:101110001A685A4B7D6B1B6852699B686343EB18D6
:1011200001339B003C6AD25A437978696343EB18D8
:101130005D00AC46011C61440C883C60944204D8BC
:101140007D6A101B6446285323E07D6A2C1C64448E
:10115000251CFC6000242C5F013415D0FD6AEC18BE
:10116000257868B2B860013001DA013503E0B8686B
:10117000002809DD013D02235B420B80FB692570DD
:1011800001339BB2FB612CE0FD6AEC182578002D41
:1011900001D10A800CE06DB2681C05D13968FD6888
:1011A0008A1A2A80002202E0012D01D1FF2222703A
:1011B000FC6AE1180A7850B2002806DC7D6A6446B1
:1011C000285F013007D0002A05D13C6B0132E3567D
:1011D0003E2B05DD05E03D6BEB56002B01DD013AB2
:1011E0000A7073793C6A7D6B6343FC6AEB183D6956
:1011F000E15CEA5C3C6B8A18E2547D6B013D7D63E7
:1012000073E73D6ABD6268E71C4BFD691B68DA68DD
:101210001B69D3189D4200DB29E7BB69013BDBB2A8
:10122000BB61002B00D038E721E7013B0FD3727977
:10123000013AFAD371793D6B5943891869187D6871
:10124000E8185F300D78007828180870F0E7386BE0
:101250000021012204F090FFB379082023707379F4
:10126000211C6370A3707F235B42E3703A6B1D23E4
:10127000237106F075FBBD460FB0F0BDD80200200B
:10128000FFFF00005805002000000020FEFF0000C6
:1012900010B5041C03F062FD5430007843425841FD
:1012A0002040FFF79FFE10BDF0B5434C8DB000AF5E
:1012B0002668B960051C06F0FBF93023FF3321686E
:1012C000F054CA5C3D4C002A10D123680A20986271
:1012D000F4312820D8620A7008F0E0FE08F04AFFD6
:1012E000FFF736F904F0A2FB482216E006F078FC7E
:1012F0000026067008F006FF236803CB03F03EFECD
:10130000FFF7FEF8236802221A620A229A62282254
:10131000DA621E611A685B685A439200131C0A3332
:10132000DB08DB006846C01A85466B46FB60236815
:10133000186859689C6A414389000A31E600C90867
:10134000C9006846331C401AA4000833C11A231C84
:101350000833DB08DB0085468D467860C91A68468D
:1013600078618D463961F868002108F0A3FF321CCE
:101370007869002108F09EFF221C3869002108F0DE
:1013800099FF00237B627B697868F968BB620A4B2E
:10139000F861386939621B683021F862FF315A5CA4
:1013A000074B9100CC583B1C281CB9681C33A04744
:1013B000BD460DB0F0BDC04600000020D8020020A0
:1013C0004000002010B5041C06F0EEF906F05AF9B2
:1013D000A042FBD008F03CFEFFF7BAF806F008F890
:1013E00010BD000070B5051CFFF7BCFBFFF77CF8D3
:1013F000224B041C1B68DE8806F00AF9002004F06A
:10140000A9FA04F06FFA1E4B1B6831331B78002BCE
:1014100004D00020E080291C00F0FEFA04F0D8F887
:10142000C0B206F0E9FAFFF76BF80120FFF730FFD2
:1014300006F0BAF906F0C2F9052815D004D800283C
:1014400014D003280AD806E006280AD0021C113A54
:10145000D2B2022A0AD801F027FC07E005F002F90F
:1014600004E003F089FE01E003F074FE06F00AF9DF
:10147000A842DFD0FFF785FBE68070BDDC100020BE
:10148000D810002010B5041C06F08EF90120FFF7DB
:10149000FFFE06F0F7F8A042FBD010BD10B5041C0B
:1014A00006F082F901F0FEFB06F0ECF8A042FBD05A
:1014B00010BD10B5041C06F077F904F03FFB06F0F0
:1014C000E1F8A042FBD010BD10B5041C06F06CF989
:1014D0000220211C00F0A0FA06F0D4F8A042FBD0B4
:1014E00010BD10B5041C06F05FF90120211C00F0AE
:1014F00093FA06F0C7F8A042FBD010BD10B5041C4B
:1015000006F052F9002004F0D3F904F031FA06F0A5
:10151000B9F8A042FBD010BD10B5041C06F044F988
:10152000002003F01DFD002004F0C2F904F020FAB1
:1015300006F0A8F8A042FBD0012003F011FD10BD79
:10154000F0B5A3B002AF386106F02EF9002008F024
:1015500045FE08F00FFE002004F0FCF95C4C6946E3
:1015600023685D6818681B694543EB180733DB087F
:10157000DB00C91A8D4602AAFA6103F0E3FB03F00F
:10158000F9FB03F0EBFBFB695D19181C291C7D615D
:1015900004F066FB23686C465A681B69D3189B00ED
:1015A0000A33DB08DB00E41AA54602ACBC6106F096
:1015B000FBF8381C00212022203008F07BFE444C30
:1015C00020202368012519681A79C155212022217C
:1015D000C255CA550533DB7F25202322D355C35D71
:1015E0007F229343FA692B43C1190B7000920022AA
:1015F000131C0420053906F079F979692A1CF86969
:1016000004F0BAFD002004F053F92568B8696E684B
:101610002B69B4009B199C462E4B04191968BC60B9
:10162000002363450CDA9A00B34203DACC69B86947
:10163000A45802E04C6AB868A45884500133F0E71B
:101640003C1C4034201C0021202208F033FE296875
:10165000AB6821706670A3700535EA7F7F26E27063
:1016600062790425B2432A4362711A4A013312682F
:101670009B005269211CD3180022203400930220C1
:10168000131C06F033F9201C0021202208F012FE62
:10169000012323700E4B211C1B6810201A7905337F
:1016A0006270A270DB7FBA69E3706379B3431D4354
:1016B000657100920022131C06F018F905F0E2FF94
:1016C0003C69A04200D174E7BD4621B0F0BDC046E0
:1016D000D80200200000002010B5041C06F064F8B9
:1016E00005F0D0FFA042FBD010BD0000F0B58BB0DC
:1016F00000AFB86103F026FB06F066FA584C6E4660
:1017000023689D68DB687D625A00111C0E319B00C6
:10171000C9080E33C900DB08DB00761AB546F61A95
:101720006D4600216846B5467D61FE6008F0C2FD49
:10173000002004F0BDF87E6A4A4A20681568B200AD
:1017400052420368BA60321C5A439100F961B107F2
:10175000711A79609107891A3A62013B23D3446870
:101760003E6A3219261C5E437618B400FE68920069
:1017700034193C61FC69A2420BD03C690426A418D0
:10178000A4466C697642A458B44466463460043A70
:10179000F0E7BE683A6AA419FC617C6A7E68121B95
:1017A0003A628919D9E7BC690B2C55D1002004F0A5
:1017B0007FF82B4B19682B4B08681C687B6AB86153
:1017C00043439A003A629A07D21A3A61FB6184460F
:1017D00066464A68013EB4462ED365465543FE69C7
:1017E0002148B318121852197E6938695200B2188C
:1017F0002D18FE68AD0075199B003D603E6AB3422E
:101800000ED03D68E818656904380668E858301A53
:101810000025565F864200DA1080043B023AEDE76D
:10182000BD6876193E627D6AFE69761BFE617D6841
:101830003E6976193E61CBE70C49B8697E23D2B286
:101840005B4208704A708A70CB70012052237A691B
:101850000B7106F085F8A9E7BD460BB0F0BDC04698
:10186000D802002000000020FFFFFF7F5805002065
:1018700010B5041C05F098FF201CFFF737FF05F09A
:1018800001FFA042F8D010BDF0B5037887B0041C6A
:10189000012B34D103F056FA1A4E071C64683568E0
:1018A00005F014FFFF35A87104AD281C05F048FFB2
:1018B000684605F011FFFE37201C69460F2208F02C
:1018C000B7FCBB89002B03D01A0A237162716B80AD
:1018D00033682178DA1DFF321170FF33049A98794A
:1018E0006B6805F0F7F83368FF33DC796408201C77
:1018F00005F084F9201C05F003FB04F097F80120A3
:1019000007B0F0BD0000002008B5416803780A4A1E
:101910000A4812680068E83206301060002B03D0D5
:10192000C9B2002000F078F803F052FEC0B206F011
:1019300063F8022008BDC04600000020DC10002033
:10194000007908B5002804D10120FFF7A1FC03208D
:1019500004E00138434243410520C01A08BD00009D
:1019600070B5047A0678456806F03AF9002C06D07E
:101970000123012C06D104F059F8002302E00123D1
:10198000042400E00524044A70B21268291C9269FC
:10199000FEF706FF201C70BD00000020F0B5037AA2
:1019A00085B0056806790293077B06F019F90524CE
:1019B0000390012F02D104F039F80324039B2A6815
:1019C0005978AB68029D70B20095FEF79DFE201C11
:1019D00005B0F0BD031C10B59A680C1C007859685E
:1019E000DB6800F01FFB207010BDF0B5846887B085
:1019F00007784668656805910F22C168684608F057
:101A000017FC231C381C311C2A1C01F069F8059BAB
:101A1000187007B0F0BD0000F0B5CB4C9DB000AF22
:101A2000F86320687960407A43000133FB6578638E
:101A300003F0BEFD236878665B7AFF22D31A9842D2
:101A400000DD7B66786E7C6B041B3C636C4603F0A8
:101A5000B7FDBC65FC6D684665002B1C0833DB08D0
:101A6000BA4CDB00C01A012363707C235B423A1C32
:101A70008546E370211CB1230020643223716E4639
:101A800005F06EFF0023211C3C6B5A001819FC6DF9
:101A90000133B052A342F7DB0223CB70321CE4B215
:101AA000632300204C700B717C6405F059FF2B1CE4
:101AB000BC6D0833A546DB08DB006846C01A8546C6
:101AC000C01A6C468546BC65386404F089F8F86134
:101AD000012003F0FFFB00212A1C386C08F0EAFB10
:101AE000B86D00212A1C08F0E5FBFC6D6846A400D7
:101AF000231C0A33DB08DB00C01A8546C01AFC62CF
:101B000078626C468546C01A8546BC626C46BC61EC
:101B1000FC69A400BC600024FC640021FA6AB86A75
:101B200008F0C8FB786AFF21FA6A08F0C3FB0024BA
:101B3000854BBC641B68BC6C1B7A9C4251DA3C6BC5
:101B40000026E4B2201C7C6103F047FD03F010FD89
:101B500003F0B6FBBC697D6A3C62BC6AF86D013675
:101B6000F217C30F86425341DBB23B61002B06D113
:101B700079698819C0B203F030FD03F0F9FC6B46B7
:101B8000FB60BB686A460A33DB08DB00D01A854677
:101B90006A467A6504F02CF80020031CFA69934227
:101BA00005DA796D9A008A5801338018F6E72368C0
:101BB000984200D920602968884200D2286003F04A
:101BC00073FB3A6A043501C23A62FB6838699D4684
:101BD0000434002802D103F073FBBFE7BC6C01346E
:101BE000A6E700255A4E2C1CB96A7A6AA300C85889
:101BF000D358C01A864204DD3B6B061CE318BB6356
:101C00003C65854200DA051C03F04EFBB96DFA6DA8
:101C100063000134C8529442E6DB281C03F044FB05
:101C2000494B1B68DB88984206DAFC6B012C03D019
:101C30007C6EBC637C6B3C65FEF7C0FCFC6B012CCE
:101C400021D13A6C0023BC6D5900615A108888423A
:101C500000D21180FC6D01330232A342F3DB3C6DF4
:101C600063003C6C1A5BFC6C131CA24200D2231C68
:101C700036499BB27C6CFB64002002234C70CB7015
:101C800008713A6C19E0F86B304C022808D1796C75
:101C9000042300206170E3702071211CBA6927E0E1
:101CA000281C03F001FB7A6C80B2F8646270022396
:101CB0000020BA6DE3702071211C05F051FE3C6DCF
:101CC0006823DC53BC6B6A20C4533C6D6E216300F7
:101CD000BC6D6C201B5BFC6CC353CC531B490423B1
:101CE0004B700223CB703A1CB2230B710020683278
:101CF00005F036FE174E3C6D32686300111CE8316A
:101D0000BC6D09681B5B09888B4227D9002925D047
:101D100008F06AFA041C08F091F9C379051C002B3D
:101D200006D0012005F05CFE3368E8331D6027E033
:101D3000002C25D1084B1B689B7C002B20D1012057
:101D400005F042FE1CE0C046DC1000208C000020A4
:101D5000FFFFFF7F00000020D8100020E73212783C
:101D6000002A0DD00E4C2068C2889A4208D9002063
:101D700005F036FE0B4B22681B680632E8331A600A
:101D8000FC6B002C06D1BC6BE0B203F026FCBD4618
:101D90001DB0F0BD7B68063B012B00D8BDE6F2E725
:101DA000DC10002000000020F0B585B00092039107
:101DB000029008F019FA061C05F0D6FC071C05F085
:101DC000DBFC724D01902B681A1CE4321278BA4287
:101DD00020D0002F08D06E4900203B23021C0B713D
:101DE000022605F0BDFD10E00199052400290DD162
:101DF00067493C23381C3A1C0B7105F0B1FD2B6878
:101E0000E6331E78731E9E41F6B201242B68E4333C
:101E10001F701DE01A1CE532127801998A4216D013
:101E2000002906D1E6331E78731E9E41F6B23A238E
:101E300001E03923022656490020021C0B7105F0EF
:101E40008FFD2B68019AE5331A70012400E0052408
:101E500005F020FC071C05F07FFC009B032B02D043
:101E6000002F03D107E00124002F36D0002005F019
:101E700019FC012431E02B68E4331F88002F2CD19A
:101E80000099012902D0022904D00EE0009805F043
:101E90009BFD0AE0381C05F097FD2B68E7331B78A3
:101EA000002B02D0381C05F09BFD05F087FD2B6848
:101EB000071CE6331B7883420FD0002802D0112381
:101EC000012601E01223061C31490020021C0B717F
:101ED00005F046FD2B68E6331F7008F085F9B04227
:101EE00038D008F081F908F08DF8071C301C08F094
:101EF00089F8009008F078F9301C08F06FF908F0C4
:101F000039F9244B1B68DB7C002B0FD0012C0DD042
:101F1000009B3A1C563256330298039905F0AEFFE7
:101F2000002003F0C5FCFEF749FB06E02B6800200B
:101F3000CE33187003F00EFD0124002005F050FD93
:101F40002B6800211A1CE7321170134AE83312681B
:101F500006321A6008F048F908F070F8C379002BCF
:101F600008D005F037FD2B68E7331A78824201D09C
:101F70001870012405F008FC051C06F021F903790E
:101F8000AB4200D00571201C05B0F0BD0000002060
:101F90005F050020D8100020DC100020F0B51D1CCB
:101FA0009BB004236F460E936B680024061C073712
:101FB00001203C70029403940494059406900796C3
:101FC000089409940A940B940C940D940F93109414
:101FD00011941295139414901592169617911895C2
:101FE0001993A20002AB240118190C4B391CD358C9
:101FF0009847041C05F05CFB094B1A683023FF333B
:10200000D35C834204D0E868FEF7D1FD1BB0F0BD7D
:1020100005F038FBB042E4D0F5E7C0464C000020A4
:1020200000000020F0B5554F8FB001933B68151CA0
:102030001A1C0024FF321C71D4721C61061C009112
:1020400006F0C4F84E4B019A1B6807940894099453
:102050000C940D9406950A950B929A885878FA215B
:1020600050438900FEF774F8009A3C681378FE34F8
:102070006081B34203D005F097FB009B1E703B6864
:1020800000229A6005F0B2FC041C03F0A1FAA04201
:1020900006D0201C03F0A1FA03226B46DA7257E047
:1020A00038490020A623021C0B7105F059FC019849
:1020B000FEF792FD39686C46081CC830CA31FEF73D
:1020C0009FFA314B31491B6802205B680B344B701F
:1020D0000423CB705B230B713B68DA6905F040FC8D
:1020E0003B682B491A1CC83212880C2003921A1C18
:1020F000CA321288CC3304921B8803AA05930123A9
:102100000B7105F02DFC3A68211C1079214A8300DF
:10211000D318000106AA10189B6998473B68B4229F
:102120009A562868A968FFF73FFE052800D020705E
:10213000194B1A68194B9A4202D003F0FFFCFEE7D4
:102140003B68174A9968914202D09A6801329A60B6
:102150006C460B342378052B02D020780FB0F0BDED
:1021600005F0A6FA30233A68FF33D35C8342F4D1FA
:1021700005F088FAB04200D184E7EEE700000020C5
:10218000DC1000205F050020D80200208C00002019
:10219000930000204C00002010110020CDCDCDCDAB
:1021A000FFFFFF7FF7B5434C151C236801911A1CF4
:1021B000B1321278061C002A23D01A1CE63212789B
:1021C000002A1ED11A1CCE321178002919D1B03341
:1021D0001B78002B15D10123137002F0BFFD071CE3
:1021E00002F0B0FD3A1C031C56325333301C0199E7
:1021F00005F044FE03F028FB022003F031FBFEF75C
:10220000DDF923681A1CCE321278002A4FD01A1C2E
:10221000294F0020B03210703A680190126A011CF8
:10222000013A0ED30E265643B446AC446646B688F1
:10223000002EF5D036B20131B042F1DA301C0192F5
:10224000EEE71A1CE6321278002A13D1012911DDBB
:1022500005F0B6FF01230430C3673B681B6A013BEE
:102260000AD3019EB342FAD00E225A430021AA1883
:102270009180F4E7002904D023680022D4331A6047
:1022800008E01A1CD432D03311681B68994201DC73
:10229000013111602368191C1A1CD431D03209682D
:1022A0001268914205DDB03301221A7001E0D43387
:1022B0001A60F7BD00000020D8020020F0B5764D6E
:1022C00099B02A6802AF1368926839605200991C6D
:1022D000514301335208396153430831C908046836
:1022E0006E4EC9006846401A85460133306802A91F
:1022F0005B00CB1879612C2200213030BB6007F0E5
:10230000D9FF00213A69786907F0D4FF381C002111
:102310002022183007F0CEFF2B687F211A685868FA
:102320003A769A687876BA760533DB7F0132FB76A7
:102330007B7F92008B4304210B437B773368391CEE
:102340005B6902209A1800920022131C183105F0D4
:10235000CDFA2068A1687A69BB68FEF7C1FAB86057
:10236000052800D086E02E686A46F36A7A601A0172
:10237000131C08336946C81A854602A97961081CEE
:10238000002107F097FFF26A7869E168FEF78EFB9B
:102390002B6868469A6A0E235A43131C0833DB08DD
:1023A000DB00C01A854602AD0021281C07F082FF21
:1023B00023697869291CE268FEF7B4FBFEF7B4FCD8
:1023C000374B1B68DB7C002B04D12068A1682A1CDA
:1023D000FFF7E8FEE168281C00F0F0FF07F092F933
:1023E00083000733DB08DB006946C91A2A4B8D4698
:1023F0001C6802AAA36AFA607B610E22013B534368
:10240000ED18061C043538617B69013B7B610FD3F5
:1024100000202B5E002B09DD3969FA68013988003C
:1024200039611018291D042207F002FF0E3DEBE769
:102430003D1C383500212022281C07F03BFF616835
:102440002068A368697015492870AB700968053465
:10245000E27FC96A0133EA705B007E22CB185242E8
:102460006A710093F2B20320291CFB6805F03EFA62
:102470007A68954603F0C8F803F0E6F902F0F2FE38
:10248000012003F015FA03F045F8B8683B68BD4633
:10249000187017B0F0BDC046D80200200000002020
:1024A000D8100020F0B5A1B00192052214925A680C
:1024B00000241592019A0125061C6F4604A81D915F
:1024C0001B490F37089509900C951195169518938F
:1024D00006251B921E931F903F23201C221C3C703C
:1024E0000A940B940D960E940F94109412941394D6
:1024F000179419951A941C960B7105F031FAA200E5
:1025000008AB240118190B4B391CD3589847041CED
:1025100005F0CEF8084B1A683023FF33D35C8342B2
:1025200003D105F0AFF8B042E9D021B0F0BDC0460C
:102530005F0500206C00002000000020174BF0B564
:102540001B6885B01E689B68B41C5B005C4300AFD1
:10255000221C5B08FB600832114BD208B86079601E
:102560001868D2006946891A8D462C220021303025
:1025700007F0A0FE221C6846002107F09BFEFA68C7
:10258000731C534301336D465B006A46EB18B86811
:102590007968FEF7A5F9BD4605B0F0BDD802002068
:1025A00000000020F0B589B004921A1C120C0E1C19
:1025B00099B2059303910292041C05F0E7FD071CF4
:1025C00002F0C0FB051C022C33D104231E4035D081
:1025D00046793B680398191C70430193FDF7B8FDD9
:1025E000C343DB1718406B46C4B2188A039B01999A
:1025F00018187043FDF7ACFDB04200DD301CAD791A
:102600007F68C6B20298391C68430197FDF7A0FDA8
:10261000C343DB1718406B46C7B2588A029B019927
:1026200018186843FDF794FDA84200DD281CC2B2CB
:1026300007E0002446798279271C02E0341C321C12
:10264000371CFF23381C1A40184012021C40240477
:10265000104336062043304309B0F0BDF0B595B0C5
:1026600002AF38613B1C786E6C331B7806780C1C0B
:10267000BA617B60CA4D002E00D0AFE01378082B02
:1026800018D103F0D3F92B6805209A693969331CF6
:10269000FEF786F803F0CAF92268A3680121062034
:1026A0000096FEF731F803F0C1F9B96905220E7002
:1026B0003A6108E26846B860052003F0F9F8B94BC2
:1026C00068461B689A6951005A6901324A43131CD3
:1026D0000833DB08DB00C01A854602A97961081CB3
:1026E000311C07F0E7FD2B683A699969786905F0B4
:1026F00035FCF86105F04AFDFA692E1C012A0ED15D
:102700002B68FF335979002909D1E0301A7A007813
:10271000904201D8197212E001321A7221E0336836
:102720000022FF335A711A729F4B38691B6879690E
:1027300033331A7805F0C0FCFB69012B11D103F08B
:1027400075F9062003F0B4F8786EB9690022012308
:1027500003700A709549A323101C0B7105F000F952
:1027600037E0914D32682B68FC3233331B781268A6
:102770005B009A420EDD03F059F9A3682268002439
:10278000009406200121FDF7BFFF3368FC331C6075
:1027900003F04CF9824B86491B68FC331A688A4265
:1027A00001D001321A6004F0E3FD04F07FFD2B68D4
:1027B0003333187802F00AFD002002F029FD786812
:1027C00002F00BFF04F096FD02F0DAFABA6EC430A4
:1027D0000260BB6805209D46386174E1724B1B683E
:1027E000598F343379601B78BB60BA682B68101C32
:1027F0001A6002F0EBFC062003F032F82068A168B2
:10280000FFF79CFE3861052800D05CE1654D684605
:102810002E683860F16A0A01131C0833C01A854615
:1028200002A9F960081C002107F044FDF26AF8686B
:10283000E168FEF73BF92B6868469A6A0E235A4313
:10284000131C0833DB08DB00C01A854602A9F961B6
:10285000081C002107F02EFDF868F969E268236979
:10286000FEF760F9FD6900264E4B1B689B6A9E428D
:1028700011DAE268F300D3182A88A91C1A806A8842
:10288000281C5A80EA880136DA80AA880E359A8098
:1028900006F090FEE8E7BB69396E1A78F86906F031
:1028A0005DFFB969421ED2B208703D4B012A03D8C0
:1028B0001A680021FC325160032809D007280DD086
:1028C000012800D0FDE01B680022FC335A60F8E0CC
:1028D000386E07F043FA041E0ED000E0182404F00E
:1028E000EFFE314B1B681B6C18400123A3401840BE
:1028F000431E9841404204407A68B868FA21504328
:102900008900FDF725FC264E051C33681A1CFF3292
:102910009279022A07D1FC335B68834203DDB869F0
:1029200008230370002405F031FC396E381C0B6855
:1029300024301A88BA845B88FB8406F069FE336809
:10294000FF339A79022A35D1DB795A071FD5182C23
:102950001DD1381C283004F0F3FEB98D24203B5ED5
:10296000FA8D994228DA388D0918994224DD2621FA
:102970007B5E9A4220DA798D52189A421CDD012042
:1029800004F0D0FEB88CF98C04F0C0FE89E09A0700
:1029900010D51A2C0ED1012004F0AAFE81E0C04609
:1029A00000000020D8020020D81000205F05002081
:1029B000FFFFFF7F002C74D1454B1B681A1CFF32B0
:1029C00091790122022905D1191CFC314968A942DB
:1029D00000DC0022B8690178082956D1D2B2002A59
:1029E00053D004F0D9FE002830D00224381C221C19
:1029F0003849203007F01CFC381C211C203004F022
:102A00003FFF052004F06CFF381C002120222830F5
:102A100007F050FC396E28220B7B2D21D35529233A
:102A2000DC55CB5D7F2293432A20C4551C43802371
:102A30005B421C433B6ECA191B681470391C002290
:102A4000009305202831131C04F050FF02F0FCFE17
:102A5000012002F0AFFB786E00241D4B04701B6850
:102A6000201C1A1CFC3254601460FF3301225A717E
:102A700004F03EFE201C04F055FE1749A223201C42
:102A8000221C0B7104F06CFF18E0FC335A681349E8
:102A90008A4201D001325A6002F0D6FE02F0B4FD43
:102AA0000CE0282202212923D019D155DC5504F04D
:102AB000E7FE02F0C9FE012002F07CFB3868854683
:102AC00001E0002418E73869BD4613B0F0BDC046E8
:102AD00000000020F0A200005F050020FFFFFF7F44
:102AE000F0B5E9B00B936B46323300240D1C0A920B
:102AF0001C70061C02F026F9079002F041F9031C35
:102B0000C43305901F6805F061FB6B463333182210
:102B100012A8211C1C7007F0CDFB18AB12935D4B63
:102B20001A68FF329379022B10D1D2791A420DD054
:102B3000594BFA201B6880001B8F584303F0DAF8CA
:102B400002F038FB02F058FB02F05EFD5349002012
:102B5000A223021C0B7104F003FF2B78B34202D0B6
:102B600004F022FE2E704B4B00221B689A6004F08A
:102B70003DFF041C02F02CFDA04204D0201C02F0FA
:102B80002CFD04245CE012AB00936A46153B0B99C4
:102B9000323201930390002302970A98FFF75EFDFB
:102BA0000EAD041C281C04F097FD0FAB1B880622F9
:102BB00009936EAB19782B7811401A4091423ED19F
:102BC00059073DD502F0DCF82D78079B0690089553
:102BD000FE339D89002D00D1099D04F077FD0FABD8
:102BE0001D8069464B8F2A043A318D881A43CB8861
:102BF00008991B042B43FFF7D5FC069A0D900DABEB
:102C0000FF321D20002110565956884217D11E2030
:102C1000012110565956884211D11F2151560222C6
:102C20009A5691420BD120220699FF32DB788A56C0
:102C30005BB2D31A5A4253415B421C4000E000246D
:102C4000144D174A2B689968914202D09A68013254
:102C50009A60052C0DD104F02BFD2A683023FF3338
:102C6000D35C834207D104F00DFDB04200D17EE772
:102C700001E0042C04D0059BC4331F6002F032FE37
:102C80006B4633331B78002B01D002F0DDFD201C96
:102C900069B0F0BD00000020D81000205F050020C2
:102CA000FFFFFF7F70470000F0B5A7B000AFF864EA
:102CB00002F048F8D74B69461C68B863656822681B
:102CC00068006A43521953000833DB089200DB00A6
:102CD000C91A131C0A33DB088D46DB00C91AB86415
:102CE0006846F8638D463963081C002107F0E2FA54
:102CF000636822689E005A43D3189A00131C0A3353
:102D0000DB08DB006846C01A85466B46FF217B6204
:102D100007F0D0FA6068236838625843396A6A4617
:102D200043180733DB08DB00D21AF96C954678614B
:102D3000013968460022AD00F862F9617A6416290B
:102D400010D80123B44A8B40134206D1B34A134230
:102D500008D0B34B1B682E3302E0B14B1B683033F5
:102D60001B787B64BB6C786CAD085B08B6080138D7
:102D7000BD613B61FE6078637A6B013200D189E00E
:102D8000F969022903D9FB6C113B012B7ED8002085
:102D900002F08EFD9F4BA34A1E6815683368BC6D18
:102DA0007B65BB62BB6A013BBB646CD37468013C4E
:102DB000611C65D0BA6AB36869695343E31801338B
:102DC000FA6C9B005858032A2AD004DC012A06D04A
:102DD000022A0BD0EBE7FB6C113B012BE7D8E9692A
:102DE000A3005B58C01AC343DB171840BA6CBB6919
:102DF000396B5343E3189B0059583A6B401898506D
:102E00007B6B002BD3D1B96C3B694B43E3185B0060
:102E1000796C3B64FDF74EF93A6CFB6BD052C6E718
:102E2000B96CBB694B43396BE218920052583A6453
:102E3000824200D23864396C3A6BE3189B00995097
:102E4000BB6CFA68796A5A43A3189B007A605A5897
:102E50009446824200D984467B68786AE1188900EA
:102E600062460A50386C7F21831AFD2B01D85B081B
:102E7000D9B2FB6AB86C1A193B6A4343D15496E73E
:102E8000BA6CBA628EE7B86CBC657865796B01394B
:102E9000796371E7FB6B00217B635E4B1A221B6831
:102EA00018691E6878645D680533DB7F381C5C3008
:102EB000BB6207F0FFF9BA6B05235C21CB55537950
:102EC0005D20C35593795E21CB53537AB86B602252
:102ED000D353837AFA6C6221CB53032A00D18AE060
:102EE00004DC012A14D0022A15D09DE0FB6C112BC2
:102EF00000DA99E0122B18DD132B00D094E07A69E8
:102F0000F86A8118002203F037F90023BB6272E0EF
:102F1000F86B00F0ABF9F86B00F0A9F9381C002150
:102F20001A225C3007F0C6F97EE0F86C11280AD14D
:102F3000691E3C1C00220123B9643962BE63583407
:102F40007A62FB6209E0701E3C1C01210022B8631A
:102F50003862BD6454347962FA627E657B6D591EB5
:102F600079647965002B33D0BD65BA6D531EBB659E
:102F7000002AF3D0786C796A3E694218B8694243F6
:102F8000F86AC1188A18396B92005058796CBA697E
:102F90004E434A4384469A18386B9200125821686F
:102FA000386A9E19760081420EDA6146FA208B1A41
:102FB0008000891858434910002900DC0121FDF7E1
:102FC000C7F8FA6BB052D0E7F86B00233352CCE766
:102FD000FA6CF86B112A02D100F04BF901E000F015
:102FE00049F9381C5C3000211A2207F063F90023EC
:102FF000BE6B7B6419E0F86A00217863381C5C3092
:103000001A2207F057F9F96C032910D1786B00F0F8
:103010002FF90CE0D8020020040040000300030058
:10302000D810002000000020BD64022301E0BD6430
:103030000123BA6C3C1C7834796C6270627921711E
:103040007F21B86A8A4313438022E0705242381CC1
:10305000391C13435C311A227E3063712670A570CF
:1030600007F0E6F8201C796B04F0B0FBBD4627B0F2
:10307000F0BDC046F0B54F4B85B01B6800AF9A69F4
:10308000396001684568796051005A6901324A43E4
:10309000131C0833DB08DB006946C91A8D46F9604A
:1030A000081C002107F006F9434CF86823682A1C25
:1030B000996904F053FF414EB860012822D102F013
:1030C00079F82568BA682B1CFF33DA7233682869EF
:1030D000DB78BB602B1CFE335B89191CFB60FDF7A2
:1030E0008DF8BA688A4209DCFB6828699B1AF9687E
:1030F000BB60FDF783F8BA688A420DDC74350123A2
:103100002B7009E03368281C5A78F96804F0D4FF62
:1031100023680022FF33DA72FDF706FE2368FF33CF
:10312000DB7A002B07D002F06FFA02F08DFB002053
:1031300002F0BEFB37E002F067FA02F085FB02F016
:1031400091F8012002F0B4FB02F0E4F925682B1C91
:10315000FE3359892869FDF751F8F960002907D134
:103160002B69002B04DD02F07DF8F86802F0A0FB6B
:1031700025682B1CFE3359892869FDF73FF8336811
:10318000DB7899420FD12B698B420CDD2B1C7433F9
:103190001E78002E07D179680868696904F0EEFD91
:1031A000236874331E703A680523BD46137005B05A
:1031B000F0BDC046D802002000000020DC10002036
:1031C00008B504F0B3F908BD0C4B10B51B681A6BB9
:1031D000002A03DD996B5218D10F0BE000218A42BF
:1031E00008D1074909680A24085F9C6B01218442C1
:1031F00000DB111C6833197010BDC04600000020B0
:10320000DC10002010B504F0C1FF164B164A1B68F5
:10321000196B0A2914DD041C84342488A1420FDAB6
:1032200064248230614300889C6B6043C14207D5AF
:10323000191CE6310978002902D11168013100E03A
:10324000002111601068191CF431032803DD0120EE
:103250000870002010600A78002A02D0683300222B
:103260001A7010BD000000205C06002070477047F7
:10327000704770477047000008B502F033FB01F05B
:10328000ABFE01F05BFE01F00FFE0F4B1B681A7ADC
:103290000E4B1B68FC33002A01D0022200E00322FF
:1032A0000B49DA6100230B700A49A0220B700A490E
:1032B000D2050B709363D36B9B0E9B06D36362B6F0
:1032C00002F0F4FF08BDC046E81000208400002092
:1032D00029000050280000502A00005038B5041C76
:1032E000FDF708F9051C04F051FF291CF4310B7897
:1032F000002B24D0124B00221B68DB6A013B07D352
:10330000180120180825405F0028F7D10122F5E7B1
:103310000C4B1B68186B002811D19D6B002D0ED132
:10332000F833002A0AD01A68FE2A01DC01321A603A
:103330001B68052B03DD00230B7000E01A6038BD0D
:10334000D80200200000002070B5051C0C1C161CC3
:1033500004F05EFA002802D001280AD02DE00E22E7
:103360005643AD19EA88FF23FE2A00D8D3B2637111
:1033700023E00E227243AA18D188FF23FE2900D829
:10338000CBB263710B250A23D35655570926ED1A84
:1033900008239657D356F61AB54207DD281C052197
:1033A000FCF7D6FE4519A571E67106E0301C052133
:1033B000FCF7CEFE8619A671E57170BDF0B5A64B7F
:1033C0008FB01B6804909E68DF68059601971E69A0
:1033D0005F690396069707919F6904F01FFA9F4B58
:1033E00001261B68E5331B780296002B5AD0002675
:1033F000079D049C02960096994B009E1B681B6AD1
:103400009E424FDA2B880AA803806B88438006F01F
:10341000FFF80420235E002B3EDD238809AE3380B5
:103420006388301C738006F0F3F80021735E059A00
:103430009A420ADA0198984207DD0221725E039EE1
:10344000964202DA069E964224DC04202A5E002A76
:103450001DDD844A009E1268942092198000121883
:10346000127952B2012A12DD059EF21B9A420EDA3F
:10347000019EF2199A420ADD09AB039E02201B5EEF
:10348000F21B9A4203DA069EF2199A4202DC0023EA
:10349000A38001E001260296009E083501360096C1
:1034A0000E34A9E70127049D079C01976C4B019FEF
:1034B0001B68013F1B6A00979F4200DBBFE0238827
:1034C0000AAE33806388301C738006F0A1F80420B4
:1034D0002B5E002B00DC84E0604B90221B68FF32E7
:1034E000596C914200DD7CE01A6B5F4B9A4278DCAC
:1034F0002B8809AF3B806B88381C7B8006F088F8EE
:103500003A88584B94461B687A88009F3088DB19AC
:1035100068331978554B76881B68002901D14133EF
:1035200000E042330427E15F1B78002910DD36B24A
:1035300011B2891BCE1789197140994208DA674682
:1035400000B239B2091AC8170918414099426CDB18
:10355000029E002E69D00BAE337880277F421F4336
:10356000DF200740287B0123402118400F43102310
:103570009F43000101990F23384398431940674640
:10358000014338B27778001218409F43317011B26E
:1035900038430912F270AA880340090119436046B2
:1035A000131C12B27170B070FF2A00DDFF23311CB2
:1035B000009A04983371FFF7C7FE301C04F038F905
:1035C000284B0421625E1B68002A04DD009E012254
:1035D0009B19683303E0009F0022DB1968331A70DF
:1035E0001FE00420235E002B1FDD0BAE00210C2208
:1035F000301C06F05FFE019B0F22134040210B435D
:10360000337001270AABDF5759881888DB783A40B6
:103610005BB21B011A43B070301C7270F17004F081
:1036200007F92B8823806B886380AB88019EA38079
:10363000EB880136E38001960E35083436E7094BF6
:103640001B681A1DD26F191C743108330A70DA67AF
:1036500004F002F90FB0F0BD0411002000000020BA
:10366000D8020020E0020020973A0000001100205C
:10367000F0B5B54BA1B01A6830230F901091FF330D
:10368000D35C0D93B14B0D9C1B680693B04B1B682C
:103690001B6A0293012C03D1AE4B1B68E13302E09D
:1036A000AD4B1B6838331B78029D0E930E235D4390
:1036B0000F9F00247F19029A0A950B973B1C0394D5
:1036C0000C940E3B013A0BD3D988039D8D4200DA4E
:1036D00003910427D95F0C9C8C42F2DA0C91F0E73D
:1036E0009D4B01211B680F9F1A1C4E321278029DC0
:1036F00091401A1C4F3212785033891A1A78013DC2
:103700008B1ADBB212930A9B07950E3BFB181C1C0D
:103710000493029B069D90270933BF00EA199B0082
:10372000079DD318043409930595059F013700D1EF
:10373000C7E00027E35F002B00D1BAE0864B0D9F66
:103740001B681A1C43321578002F04D11A1C60889C
:1037500002CA14330BE00D9F012F0BD17D4B608803
:103760001B681A1CF8320D331168FF33043204F061
:10377000F6F9061CFCF7BEFEF4300278764B002A00
:1037800005D01A6829321278964200DA161C1A6897
:10379000131C44331B78002B01D1642349E02B1CFC
:1037A0006E4F069DEF191397787B1490002820D157
:1037B0000021675E64217943CF2080008C46291860
:1037C0001D1C7543AC4512DDB74210DC8D68AC465C
:1037D0000125AC4467468F605E4F3F6880373F7875
:1037E000BC4506D113984573149D8D6001E00020FF
:1037F0008860069F59483D18697B002913D000272F
:10380000E15FCF20069F8C4680003918B44508DD63
:1038100088680E9F01308860B84204D10020687328
:1038200000E000208860069D4C4FE919497B002983
:10383000B3D0069D9027BF00E919059D4819057D65
:103840000027E05F002D03D00E9F6DB2BD4220DC4B
:1038500064214143734399420EDB131C40331B78B0
:10386000039D61886B439B11994205DBD36B0C9FD1
:103870007B439B1198421CDA099D069F90200023F0
:103880008000638023802B603B185A68013A5A609D
:103890000FE028321278324D724368435343984206
:1038A00007DA099D0023638023802B604B68013B6E
:1038B0004B60059F099D013F043D05970E3C09950E
:1038C00033E7069C9025AD00079E63190022029FF6
:1038D0005A609A191432109C0F9D05920A9EFA00A4
:1038E000A2180392AA190C3A0292079A079F6C3207
:1038F00052009A1804320D92079A902074325200A6
:103900009B1808330C930C237B438000069C1B18E8
:10391000E3180F93079F013700D1DCE20B9E0B9D4C
:103920000A3E0027F35F0E3D0A950996002B00D151
:1039300061E2059C0E9A237806320133DBB259B25C
:1039400091420FDC237011E000000020E002002013
:10395000D802002004110020001100203F030000C5
:10396000102700000E9B059D04332B70059E00233D
:10397000F356012B09D1049F039B3A88083B029C14
:103980001A80039B2288063B1A80059E00257557E6
:10399000012D65DDA81C0321FCF730FC039CCFB290
:1039A0001197083C022D45D1A64B039D1868A64BE4
:1039B0000021625E19680368063D9C460026AB5FE5
:1039C0004E69096940684910511ACF170138C91961
:1039D00000027940401A7F280ADD76109E1BF017FE
:1039E0006746013F36183F024640BF1B7F2F11DC60
:1039F000049E029F0020305E0021795E801AC91A61
:103A000005F00EF80B2805D92388049C23802B8809
:103A1000029D2B800323013B1CD30F9F049E5A0061
:103A2000BA183088111C5A31029C088021886032F3
:103A30001180F0E7079D06236B43069EC918228874
:103A4000824B49007118CA52039B063B1A88A8236F
:103A50009B00CA52049F029C3F88248817971694A3
:103A60007B4B1B681A1C9C321278012A4CD19D3367
:103A70001B78079D9D4247DA764B1B681A1CE6327D
:103A80001288002A40D1CE331C78002C3CD16E4BDA
:103A9000049E1B680022B25E191C90310968029FC7
:103AA0004A43191C12149431189209680022BA5E14
:103AB000D0204A4368431214059D19921A941B940E
:103AC000A03000221818AA561AA918AB00F0F2FC70
:103AD000079F3420D02660437E435B4D80192968C0
:103AE000A030081818AA211C00F042FEA2001CAB4E
:103AF0000134D050042CEBD12868A03680190A99E3
:103B00001AAA00F0A3FF5EE1059C00256557012D70
:103B100000DC58E1032D00DC3FE1079F06267E43D1
:103B2000119F4A48BC19069F64003C19205A032182
:103B3000089011980430FCF761FB89194900A8230B
:103B400079189B00E05A414ACB5A8F5A10909C46F4
:103B5000042D16D1039B049D083B0020285E002104
:103B60005B5E029DC01A039BC2178018063B504043
:103B700000215B5E0022AA5ED31ADA179B1853401D
:103B800013E0049D0020285E0D9D0023EB5E029D46
:103B9000C01A0022AA5E0C9DC1170023EB5E4018DC
:103BA000D31A4840D9175B184B400799069D2A4AFB
:103BB000C0186B189B181978284A002906D011687C
:103BC00056310988884208DC002105E01168583127
:103BD0000988884201DB012119701B78002B3FD135
:103BE00012688021131C5432128852331B880092B1
:103BF0004A0003F0A3FF154F049D061C0021695ED7
:103C0000E05F029F0B1ADD175A196A4000257D5F9D
:103C1000A827BF009446E25FAD1AEA17AD185540D9
:103C200065442B1C321C05F077FD049B321C188068
:103C3000E05F029C2B1C0021615E05F06DFD029D82
:103C4000288086E0D8020020E00200209A020000CE
:103C500004110020000000201203000000110020C9
:103C6000089C109DA1B2CF1B3FB2FB0FDF197F1044
:103C7000AAB213976746D31B1BB2049CDD0FEB1847
:103C80000025645F029F5B100A94139C149300202C
:103C90003F5E0B190A9D149C15971BB2EB1A121963
:103CA000159DDF1712B2DB19AA1A7B40D717D2195C
:103CB0007A409B180024802B01DD1C1C803C11984D
:103CC00003210530FCF79AFA844B089A1F68069D79
:103CD00089193B1C4F3349001E78691810B25D7872
:103CE0007F4A129B58438B5E7343C0180A9B6B43F9
:103CF000C0183B1C4E331A78513710410890109869
:103D00003B7807B212984743A8208000095E4E43D3
:103D1000BE19159F14997D437519139E594373431A
:103D2000089F1141134115418022F8186D18231C7A
:103D30000A99D20005F0F0FC049E029F3080802298
:103D4000231C0021795E281CD20005F0E5FC029CB2
:103D50002080039B099E043B0021715E0025585F73
:103D60005E4D431A2F68DC171B1963403A22BA5E76
:103D700005F0D2FC099E039B0B9C3080023B083C63
:103D8000188821882B683A27DA5F431ADD175B19F8
:103D90006B4005F0C1FC208015E0039B049E083BAE
:103DA0000022B25E0027DB5F049CD3185B102380E7
:103DB000039B029D063B0022AA5E00269B5F029F9A
:103DC000D3185B103B80059C0023E3560E9DAB424D
:103DD0006CDD099E0023F35E002B74DD039B043B26
:103DE0000027DB5F002B6EDD179D0D9C169F0C9E40
:103DF0002580378067E0059F0022BA560E9CA242BC
:103E000030DD0399043900254A5F002A32D0069E2E
:103E10009027BF00079DF2195419A07F0130C0B24E
:103E2000A0772E4C40B2246839342478A04202DDB9
:103E3000059E33701EE0039B049F083B1B88029C79
:103E40003B80039B099D063B1B8823800B882B80AE
:103E5000039B023B19880B9B083B19805368013375
:103E6000536007E0069F079C1E4D059E3A195219A4
:103E700033701370079E059F013E039C049D0796B7
:103E80000B9E013F083C0E3D0E3E05970394029F9A
:103E90000D9C04950B960C9D0F9E0E3F023C023D1F
:103EA0000C3E02970D940C950F9633E50123099C67
:103EB0005B422380069C9025AD00079E63199B19E9
:103EC00000229A77D6E7069D9026B600AB195A686D
:103ED00001325A60EEE721B0F0BDC046001100206B
:103EE0009A0200001203000008B5FFF7C1FB08BDED
:103EF000F0B58FB0059007910A920B930024404BC8
:103F00001B68DB6A9C4278DA059F2301FB180820B6
:103F10001B5E002B6FD0079FA300FB180327DF5702
:103F200008979B78013F5BB206930497089F04981B
:103F300001370997B8425EDC069E013E069B0133BD
:103F40009E4255DC2E4B04991B6801319A680A9FEA
:103F50005143481C80193D5C013D47D3DB6A9D42BB
:103F600044DAAC4242D0079FA300DB5F254F4000FC
:103F70003F687F8EBC46149FC05B834236DC069F41
:103F80006046C91943430131149F4900C95B9B1125
:103F90008B422BDA099F7A43B2180132149F5200E8
:103FA000D25B934222DAA54202DB2B1C251C1C1C8F
:103FB000059821010DAF41180A31381C042206F082
:103FC00037F9059A29015118381C0A3104F088F98B
:103FD00000970A9F231C01970B9F05980297149F37
:103FE000079903972A1C04F099F92C1C0236A5E7BF
:103FF000049F023799E7013481E70FB0F0BDC04656
:10400000D802002000110020F0B595B00E920C1CD3
:104010001390FCF75DFAFCF767FA974B07271B68CC
:104020001A7B0897062A00D80892944A1268F4323C
:104030001278002A01D0924B1B681F7A914D079786
:104040000A201F5E2B6890491A6806970A705F68FD
:104050009A684F708A700E9F013204239200CB70D1
:10406000BA18512302200B7103F07AFC0023A21D21
:10407000D3770232D3777F26631DDE77E31DDE77A9
:104080007E4B1B680993E5331A782B1C002A09D153
:1040900029680B920D684968013D0139C9B2EDB23A
:1040A0000A9104E00E270A97012710250B971B6839
:1040B00000270C93704B6DB21B6805970493734BEC
:1040C00003971B681093724B1B6811930B9F7BB275
:1040D0009D4200DA98E00A9F7EB26F000D97002E95
:1040E00000DA8FE00C986F1C80680E994743013707
:1040F000049ABF19BB005B580C98117842680029DC
:1041000009D010998819111C6943405C43431198E8
:10411000806843431B136A431A99B218920050589F
:10412000000CC01A099BE5331B78002B04D0052333
:1041300058430621FCF70CF8139A7F00B852049FED
:1041400000284BDB0E23FB56984212DB2168C31A72
:10415000CB18236063690F210133636179560E2206
:10416000BA566368884201DC821A00E08A1A9B18FA
:104170006360E268904204DDF7B21297EFB20F97E6
:10418000E060089FB8421BDB231C08331F229A56AD
:10419000B24200DADE77E31D1F229A56B24200DDFA
:1041A000DE77A31D1F229A56AA4200DADD77631D2F
:1041B0001F229A56AA4200DDDD77059F0137059739
:1041C0001C9F7200B95A83B25918B9521B9F0D999E
:1041D0007A5A9B187B52039F3F1810E01023FB561E
:1041E000984206DCA168C31ACB18A360A369013307
:1041F000A3612269904200DA2061039F3F1A03976E
:10420000013E6CE7013D61E71E4B03981B680125E9
:10421000D968FBF79DFF1F497C235B42221CCB70B2
:10422000E06176231C32281C0B714D7003F098FB63
:10423000059FA21D27621F21631D51561F229A56FA
:10424000134B1B68914201DB1D7101E000221A71C2
:10425000129F231C28331F700F9F01205F70E1689D
:10426000079FB94205DA2369069FD80FFA179F42C4
:104270005041C0B215B0F0BDF41000200000002085
:10428000FC100020D802002058050020F810002063
:10429000DC0200208C0000200B4B09681A683023D8
:1042A000FF33D35C094A1268507B48438011002BCE
:1042B00001D1137B04E0012B05D1054B1B68DB7991
:1042C000984200DA181C704700000020F41000200B
:1042D000FC100020F0B597B01E1C5D4F1CAB1B7886
:1042E0000A923A6806900C1C0B9303215156202029
:1042F000411A022010564900091A4910554DC9B2F9
:1043000005912B68907A19781B790090D27A0598DC
:104310000192029072681D9805F096FD38682B682E
:104320007268067A19791B780096407A059E01908A
:1043300002961E9805F088FD002124220DA805F0A4
:10434000B9FFA3687F22180A190C00260C93227269
:10435000A27240B25AB249B21B162F686672E67258
:1043600005900791089304960598824251DC1D9DA3
:104370005300EB180993079B089E501CB34246DC80
:10438000B9680A9D4143591801314E00755F5900C3
:10439000AC461E9D664669180989761A0999B44685
:1043A0000E896546A91B0B9EB14213DD0B2565578F
:1043B0009D4200DAE3720A2565579D4200DDA37233
:1043C00009256557954200DA6272082565579542BE
:1043D00000DD2272CD1F072D08D80DADED5C012642
:1043E000AC46B44466460DADEE5401E0002904DD50
:1043F000049D8D4202DA049100E00021BE68069D12
:10440000704318180130800041510133B4E7021C99
:10441000AAE70CA80DA9069A00F076FB0D4E0E49EE
:104420003368049D5A68256018684A709A68069D2A
:104430008A707C2301325B4292000870CB70AA180C
:10444000832305200B7103F08BFA17B0F0BDC04633
:1044500008110020D802002058050020114B70B52B
:10446000444201209C421BDC201C0F49FBF770FEDC
:104470000D49421C0D1C5543661BF317F6185E4090
:104480000A4B4000C05A52007043094EAD19641BDC
:10449000E51764196C40D55A6C430019FBF758FEB8
:1044A00070BDC0466F11010010270000F2A200008D
:1044B000F0D8FFFFF0B50F1CAC49D3B00E680490E4
:1044C0009E36012A25D11C685868049B0021FA22D7
:1044D0001A63013100221C60D8605A601A619A6028
:1044E0005A619A61DA611A625A629A62DA62343304
:1044F0000429ECD1049DC8232A1CDB000432AB61E3
:10450000EB64AB65D3678832136093609362536347
:10451000D3630024A20000239219181C1A255D43BE
:1045200004994D192D6BD15A023369434018082B59
:10453000F4D1FA218900FBF7BDFD38530234082C71
:10454000E8D10AA80021102205F0B4FE002534238A
:104550006B4304980EA9C3181B6B00240693EB0051
:10456000F31805932B0159180791059A069B105BC8
:10457000395B5843FBF79EFD079963002822C8501A
:10458000D218694652582833101802345850082C53
:10459000EBD10135042DDAD11EA80021D0220EADB9
:1045A000002605F087FE20AC079506960023049AA6
:1045B0001E1C181C079F1568F95810334D434019ED
:1045C000D568343269437618402BF3D1069F69468B
:1045D000BB0028335D58271C291CFBF7B9FD083F99
:1045E0003860291C301CFBF7B3FD069E6060002E6E
:1045F00035D00023049A1E1C181C079FF9585768D1
:1046000010334F43C0191769343279437618402B61
:10461000F3D1291CFBF79CFD271F3860291C301C97
:10462000FBF796FD069EA060012E18D00023049A89
:104630001E1C181C079FF958976810334F43C01968
:104640005769343279437618402BF3D1291CFBF794
:104650007FFD291C2060301CFBF77AFDE060069D81
:10466000079E01350436069534340796042D9DD1F6
:1046700026AC0027BA000EABD01801920023049A92
:104680009C4606930793059308930993C15895692F
:10469000069E4D43AC44D56910334D437619156AD7
:1046A00006964D43079E7619556A07964D43059E1B
:1046B0007619956A05964D43089E7619D56A08962F
:1046C0006943099E343276180996402BDED1019950
:1046D0000AA80D586046291CFBF73AFD261C083E27
:1046E0003060002F1BD0291C0698FBF731FD261FD8
:1046F0003060291C0598FBF72BFD6060012F0ED060
:10470000291C0798FBF724FD291C20600898FBF75B
:104710001FFD291CA0600998FBF71AFDE060013716
:104720003434042FA6D1049B00211EAA8D585218A0
:1047300056689768D0681D605E60156956699F600D
:104740009769D8601D615E619F61D069156A566A7C
:10475000976AD26A3431D8611D625E629F62DA6202
:104760003433D029E1D153B0F0BDC046041100204C
:10477000F0B5B44B91B0041C94461B68012912D0CB
:1047800007DC00291BD1BE339F881D780297DB8888
:1047900014E002290DD0032911D1BE331F8ADD7820
:1047A00002975B8A0AE0BE331F895D7802975B89B6
:1047B00004E0BE339F899D780297DB890693012D23
:1047C00061D0002D4DD0022D7BD1A7686368206891
:1047D0001911DB1908977A110A9367692369091877
:1047E000E0688A181911DB1909180D920B937A11D8
:1047F000A36A8A180C92DE0FE26AF6187110206A1A
:10480000D60FB61876100997C718BF190197A06977
:10481000E7693F18206A0397C70F3F1803987F1076
:10482000C719E0693F18606A3F1801987F1803971D
:10483000C70F3F1803987F10C7190497606AE7698C
:104840003F187818216A676A4018F918C018C91803
:1048500080199B18891803900E910793029BD61814
:104860003BE02768A0690D97E7682E1C0C97029F14
:1048700007953F1804970E950195039509950B959B
:1048800008950A9529E0676820683B110A9727690F
:104890001B18E0683A111218E0690C92A269616A6B
:1048A0000D930B97029B4700BF1800267F184018F6
:1048B000C918049703900E910796019609960896D9
:1048C0000BE0002607960E9601960396049609962D
:1048D0000B960C9608960A960D9667463F680D98BB
:1048E0003F1A60464368029704980C9FDB1BC7176A
:1048F0003F0F05933F18069B3F11FF18391C80019D
:10490000FBF726FC039906908801391CFBF720FC75
:10491000019A0F90391C9001FBF71AFC0D9B069928
:104920009A02029B4B43D3189B1223600A9B0F9958
:104930009A01029B4B43D3181B019B126360089B97
:104940000C999A01029B4343D3181B019B12A3604D
:104950008A02059B06994B43D2189212E2600B9A89
:104960000F999301059A4A439B181B019B122361DF
:10497000099B06999A01059B4343D3181B019B127F
:1049800063618023049ADB005B1A5A43D117890DB7
:104990008A189212A261002D05D1E5612562656237
:1049A000A562E56239E0039A5A43D117890D8A1846
:1049B0009212E2610F9A03995242514304920E9A65
:1049C0008C469202111C61440392CA17920D9446C0
:1049D000614489126162022D1BD10199019A4B43F6
:1049E000D917890DCB189B122362049B07995A4350
:1049F0008B02D318DA17920DD318019AB6025043DE
:104A0000301AC617B60D30189B128012A362E062EE
:104A100003E000232362A362E3620298059B404304
:104A20005B43C0186423391C5843FBF791FB4010CB
:104A30004042FFF713FD044B391C5843FBF788FB3A
:104A400011B0F0BD0411002010270000F7B50024BC
:104A5000051C0191171C0093261C009962003B5B0A
:104A60008858FA2158431A236343EB1818638900C6
:104A7000FBF720FB02348619082CEED100242F19F5
:104A8000386B311CFBF716FB002801D0386301E0BE
:104A900001233B633434D02CF1D10024201C261C8C
:104AA000221C2B6B2968013259430818E9689E19AA
:104AB000594334350C19042AF3D1311CFBF748FB58
:104AC000311C051C201CFBF743FB041C002D01D0EE
:104AD000002806D10A490020FA23021C0B7102F0BB
:104AE0003FFF084B1B681A1C98329C3312681B68E6
:104AF00055435C43019A2D14241415805480F7BD4E
:104B00005F050020E0020020F0B5574B93B000AFE6
:104B1000B9621968161C4A6838640868131C434354
:104B20005B000833DB08DB006C46E41AA546F8633B
:104B30003B6C68467863DB783C6C5BB27B62A47844
:104B4000550064B294463C63FD62221C786A82423E
:104B500058DCB86A835C082B52D93C6C0023E356BE
:104B6000604658430125655710187C6B40003D6234
:104B700020180025F861BD633D6AAB4240DC062485
:104B8000002B09D0886858438018800034583018AA
:104B9000456880686419241888680133786158432F
:104BA00080188000355830186419F860FD6B8068F3
:104BB000013DB86020185C1EAC4211D07C695D1CC0
:104BC0006543AD18AD00BD61755940197864B86989
:104BD0007C6C35186868AD6824187C64641900E042
:104BE000841DF86845680320684304190D20444378
:104BF000FD69B86B24122C52FC6A0019B863BBE73C
:104C00000132A3E76246D3079A1A3B6BBA633D6C45
:104C10000322AA56934223DCBC6AE25C082A1DD90F
:104C20003D6C0022AA5664465443B86B7D6B241831
:104C3000E41864002C197C640020FD6A3C6C401967
:104C400001256557AA4209DC8D68013255437C6C09
:104C50005D190135245AAD00AC51EEE70133D6E7BA
:104C6000BD4613B0F0BDC046D8020020F0B5304FAD
:104C700085B0019038680A1C031CFF3302909E79AE
:104C80000B1C143303930023022E2AD1029CFF3401
:104C9000E479344225D01478012C07D10D7D651BB1
:104CA000E8172D184540072D0DD108E0052C12D12D
:104CB0000D7D641BE01724184440012C07D1541AC1
:104CC0000E2C12DD13E05578002D06D00DE054783F
:104CD000002C0CD009E0022C07D0033C012C06D894
:104CE00003E010780C7DA04201D00133DBB2039DBC
:104CF0000132AA42C8D10022022B15D80198012303
:104D000003700B7D591EC9B2062901D8094A525CAD
:104D10003868FF308179022906D1C079084203D072
:104D2000063B022B00D81A22101C05B0F0BDC0466D
:104D30000000002002A30000014B18607047C0462D
:104D4000E8100020014B18687047C046E8100020AA
:104D5000014B18607047C046E4100020014B1868F2
:104D60007047C046E4100020014B18607047C046F1
:104D7000E0100020014B18687047C046E01000208A
:104D8000014B18687047C04684000020F7B50E4BF1
:104D900019688B795F1E15D34A79013A10D34D7982
:104DA000561CAC1C019401242540019C65195D43EF
:104DB0007419064DA40064192568C5402560ECE708
:104DC0003B1CE7E7F7BDC046E8100020004000505C
:104DD0008D23013B002B01D0C046FAE7044B102283
:104DE0001B78DBB21807C00F134018437047C0464A
:104DF0002B0000500F4BF7B518261E700E4BA02746
:104E00001E70FFF7E5FFFF050B4B01AC00252C37AB
:104E100060701D703E70FFF7DBFF064B20703D7029
:104E20001D7023786278181C5040400013400343E3
:104E3000D8B2FEBD2A0000502D00005010B50D4B19
:104E400000201B78AA2B12D10B4B1C780B4B64B2A1
:104E500018780B4B40B219780A4B20181A780A4B75
:104E600049B21B7840188018C01A43425841C0B25A
:104E700010BDC04650000200510002005200020066
:104E80005300020054000200550002008023DB02A0
:104E90000022188059809A80C046024B188880B240
:104EA0007047C04606000400154BC0229200985877
:104EB0001449014099509958FF20814340200143F3
:104EC000995098581049014080200004014399509E
:104ED000985880210002000A0906014399500222D5
:104EE0001A6001221A60082104221A601960FC333A
:104EF00000215960054B19690A431A617047C04681
:104F000000E100E0FF00FFFFFFFF00FF00ED00E019
:104F100013B5094A042413780021DBB21C43019124
:104F20000198F421FF31884205DC1370C0461470EB
:104F300001990131F3E713BD0D00005082B000224A
:104F4000019201AB55221A70392252429A70012205
:104F5000DA70019AA023DB059A6102B07047000065
:104F60000122A023DB05104002060349986908408E
:104F7000104398617047C046FFFFFFFE82B00022D9
:104F8000019201220A40891801303F2201AB1040F2
:104F9000C9B21870481C023102408900D9705A7099
:104FA000019AA023DB05DA61196A024A0A401A62F3
:104FB00002B07047FFCFFFFF0002064B000A013826
:104FC000002258609A6005221A60C0461A68D10310
:104FD000FCD5704710E000E0F0B5534F85B03B685A
:104FE0001A1C503215780232196D127853331E781C
:104FF0000F231407994312092D0701922D0F0B1C43
:1050000080222B4352001343484A0395484D1340D6
:10501000484A2B4048491340240F0B400199220471
:1050200013430A0545493607360F0B4000961343D4
:105030003206434E029433401343424AA024E4050F
:105040001340E360FFF764FF3B68E26851331B786D
:105050001540DB069B0FDB021D43E560E268802301
:105060009B001343E360E26880239B011343E360EA
:10507000029C039DFFF7E2FE002813D0324F8820E8
:1050800039781E34C9B2FBF763F839784443C9B2A2
:105090008820FBF75DF80F3545431E3C00230F3D8C
:1050A0009C4203DB231E0F2B00DD0F230F229542B2
:1050B00000DD151CA024E4051F491A40E368120412
:1050C0000B401343E360EB43E268DB171D400F2303
:1050D0009A431D401543E560E368F0229343802224
:1050E0001343E360E368154A18481340E360E3683C
:1050F0003340E360FFF760FFE26880235B05134302
:10510000E3600099E2680B0616401E43E660104813
:10511000FFF752FF019B09491A05E3680B4013434F
:10512000E36005B0F0BDC046E4100020FFF9FFFFCA
:10513000FFE7FFFFFFDFFFFFFFFFF0FFFFFF0FFFB6
:10514000FFFFFFF0FFFFFFEF54000200FF0F000022
:10515000FF6F0000064A074B12680120FC32D2693B
:1051600019789040021C0A43D2B21A707047C046A8
:1051700084000020290000500549064B09681A7870
:10518000FC31C9690120884082431A707047C046CB
:105190008400002029000050044B1878044B1B6841
:1051A000FC33DB6918410123184070472900005087
:1051B00084000020044B82B0019001AA18809278EC
:1051C0009A7002B07047C0462400005007B500F046
:1051D0006DFD064B019001AA188092789A70044BDD
:1051E00000221A70034B0122DA7707BD2400005019
:1051F000CC10002008000050034B00221A70034B13
:105200000122DA777047C046CC1000200800005019
:1052100072B6084B1B5C002B03D1C04662B630BF90
:10522000F6E762B6A023DB059968034A0A409A6054
:105230007047C046CC100020FFFFF9FF72B6074B45
:105240001B5C002B02D1C04662B6F7E762B6A02312
:10525000DB059968024A0A409A607047CC1000202A
:10526000FFFFF9FFA023DB055A680121120E5868E1
:105270009143034A090602400A435A607047C046F8
:10528000FFFFFFFE08B5074B1B681A1C5732127848
:1052900058331B785200013250439940FAF758FFB7
:1052A00008BDC046E410002008B5044B1B685A3303
:1052B000197849000131FFF7E5FF08BDE41000202F
:1052C00008B5A0230120DB055870FFF7A1FFFFF709
:1052D000C9FF08BDF7B5A026041CF605042808D0B0
:1052E00005280ED15A4B1B681A1CE4321768E833A4
:1052F00005E0574B1B681A1CEC321768F0331B682B
:1053000021E0544B1B685F6C9B6C7361FBF7F2F8F8
:10531000E7300378002B17D004F066FF04F08EFE10
:1053200081787F2211408904019171690B1C4A49DF
:105330000B40019919437161C178474B0A4071696B
:1053400092040B4013437361A023DB051F611E69A8
:105350001F231E40FFF772FD00280AD03F4B882014
:1053600019780436C9B2FAF7F3FE46430023043E27
:1053700003D4331E1F2B00DD1F23A022D205108A69
:105380001F210B40884303431382032C34D005DCD8
:10539000012C2DD013DC002C11D030E0052C0AD0CC
:1053A00005DB062C2BD12A4B1D68FA3527E0284B4C
:1053B0001D68F43523E0264B1D68F7351FE0FBF729
:1053C00099F8031CCE331B78002B03D0204B1D68AB
:1053D000533514E0E7300378002B05D004F004FFC8
:1053E00004F02CFE051D0AE01A4B1D68563506E038
:1053F000184B1D68593502E0164B1D685C35A0231B
:10540000DB05596928783F221040914301435961D7
:1054100068781F215D6908401149C0022940014395
:1054200059611049640009680C19211C9A310878E7
:10543000596810409143014359609B342178586862
:105440000A401102084A02400A435A60F7BDC046AA
:10545000E8100020E4100020FFFF03FE54000200CB
:10546000FF07FFFF84000020FFC0FFFF244BF7B5BC
:105470001A68244B1B6859331B785B069B0E0193FB
:10548000131C4933197800238D005519581E5B18D9
:10549000002B27D053181B184A331B788024D318AD
:1054A0005E78A023DB055F68E4033C435C60019CFD
:1054B000B606240400945F68B60EBC46124F6446DC
:1054C0002740009C27435F60C04624367600840056
:1054D000F65A2C19C83426605E680C4C34405C6067
:1054E000031CD3E7131C493309491B78C8324B709E
:1054F0000423CB700F20B0230B7102F031FAF7BDFB
:1055000084000020E4100020FFFFC0FFFFFFBFFF6A
:105510008C000020F7B5FFF7A9FF134B00241D688E
:105520002B1C49331E78731C9B005B420093B30015
:10553000EB180193009B043C9C4208D0019B012185
:105540001F19C8373868FFF79DFE3860F2E7074932
:105550002A1C0423CB70C832B0230F204E700B716D
:1055600002F0FEF9F7BDC046840000208C00002048
:10557000044B00225A70A023DB055A7001221A70D6
:105580007047C046CC100020A023DB059968064A6E
:105590000A40802189020A439A60044A00219170DE
:1055A00001229A707047C046FFFFF9FFCC1000201F
:1055B000024B1B68C03318687047C0468400002047
:1055C000024B1B68C03318607047C046840000203F
:1055D000A023DB059868C0B2704730B5A023DB0577
:1055E0009B68DBB283420ED001DA013300E0013B5D
:1055F000A022D2059568FF211C1C8D430C40291C5C
:1056000021439160EEE730BD08B50020FFF700FEB2
:1056100008BD0000034B1B68573318784000013069
:105620007047C046E4100020024B1B6858331878BE
:105630007047C046E410002000487047001000503A
:10564000004870470020005000487047004000505C
:10565000084B01201B685B799A1C0340D318064A4B
:1056600012689532107801385843044B8000C018F6
:105670007047C046E8100020840000200040005021
:10568000074B01201B685B799A1C0340D318054A1D
:105690001268913210785843034B8000C01870474D
:1056A000E81000208400002004400050F0B585B0D0
:1056B00000AFFAF71FFF5F4B1988031CCC331A8821
:1056C0008A181A805C4B1B681A78BB6053B2042B93
:1056D00027D15A4B1C68231CF6331B78FB60FFF75D
:1056E000B7FF0222561EB44600D2A0E06379013B08
:1056F00015D365790121AE1C0D407119514301315B
:10570000CD18AD007D60BD68EE185E3636787D68D8
:10571000891989000958FE68F1402950E7E7624677
:10572000E0E7052B21D1454B1C68231CF9331B787E
:10573000BB60FFF78DFF0423591EF96077D36279B0
:10574000013A10D36179551C7D6001258E1C2940DA
:10575000711859437D68BE686D18AD0045192968F8
:10576000F1402960ECE7FB68E6E7002A45D0022B10
:105770000BD1CE300378002B03D0304B1B68553350
:1057800038E02F4B1B68583334E0032B03D12C4BEC
:105790001B685E332EE0012B27D16D467D60FFF73D
:1057A0006FFF264B69461B68061C5C79A5002B1C05
:1057B0000A33DB08DB00C91A8D466B46FB60013CEF
:1057C0000BD3B9680B195E331B789B009859FFF710
:1057D0006BFDFA68A300D050F1E72A1C301CF96871
:1057E00004F026FD7D68AD4607E0062B05D1134B7E
:1057F0001B68FC331878FFF7C9FA114B1B68553347
:105800001B78002B13D00D4B1A685379013B0ED334
:10581000517901258C1C294061189479581C6143E9
:10582000084E40188000801900210160EEE7BD4657
:1058300005B0F0BD7000005084000020E81000208A
:10584000E41000200040005008B5A0230120DB0533
:105850005870FFF7DDFCFFF705FDFFF727FF08BDD8
:1058600070B5041C104E114D11D10120FFF732FD0F
:10587000336801221A70A023DB056C705C701A700B
:10588000FFF7E2FFFFF7EEFCFFF744FE0224201CC7
:10589000FFF720FD336800221C70A023DB056A702F
:1058A0005A7001221A7070BD84000020CC100020B4
:1058B00008B5FFF7D5FFFFF7C7FF08BD10B5A02358
:1058C000DB051C6A0005064A000D010422400A435C
:1058D0001A621A6A120B12031043186210BDC046F6
:1058E000FFFF00F073B5174BA0221B68D20591682B
:1058F000D96C4C3391601C78FFF7A0FA124D002848
:1059000012D0124B124A1B7812782E6852B25BB238
:105910000092201C1021D12202F010F92B68C4360D
:105920003060C4331B68E418002C01DA002402E064
:10593000FF2C00DDFF242B68E0B2C0331C60FFF7B2
:105940004CFE73BDE41000208400002053000200D0
:105950005200020008B5002801D0012801D100F052
:10596000A5FCFFF7BFFFFFF737FBFFF7E7FA08BD1E
:1059700070B51F4B13211B68A0B0DA7A0023133ACD
:10598000D2B291425B410221C91AA023DB055869BA
:105990003F2210405C688022D20322435A60421E9C
:1059A000A023D2B2DB05FF2A11D05E683F25114C3F
:1059B00015402D0434402C435C60C0460C1C24343C
:1059C00064001C5B6D465300EC52013AE8E75968ED
:1059D000094A0A4009495A6002234870CB700320E3
:1059E000B3236A460B7101F0BBFF20B070BDC04607
:1059F000E8100020FFFFC0FFFFFFBFFF8C0000206A
:105A0000084B0948196810B5046808688B680130AC
:105A10009A00434360699B00C018002104F04AFCCF
:105A200010BDC046D80200200000002038B50C4D43
:105A30000C4C2B68201C9A6891001A6802324A4369
:105A4000002104F037FCFFF70DFC2B68201C9A683E
:105A500091001A6802324A43002104F02BFC38BD41
:105A6000D802002000400050044B054900221A6073
:105A700059609A6005221A607047C04610E000E045
:105A8000FFFFFF0010B5A023DB059C6899680C4B55
:105A9000C9B21B68E403C4331B68E40F591AFF3111
:105AA000E62359430134074BA040C918041C06489B
:105AB000FAF74EFBC1B2201CFAF74AFB10BDC046F4
:105AC000840000205C5D000040420F00014B00227A
:105AD0001A60704710E000E013B50B4C0B48A36848
