:1000000000140000000E000094FE0000000000003C
:1000100000000000000000000000000000000000E0
:1000200078FFE4B8200118F6D8F99000007F007E30
:1000300007E4F0A3DFFCDEFA75810702392E900198
:1000400001E060069001807401F022020877904080
:100050007FE493FF64316003EF7002002253A87FB6
:100060000080FD122DDB023DF70000021FB6123AA0
:100070005D900101E0600812304EE4900101F02231
:10008000D2AF32022875121C37122D4490018074B1
:1000900001F02212185E22D2AF3200020860E70996
:1000A000F608DFFA8046E709F208DFFA803E888228
:1000B0008C83E709F0A3DFFA8032E309F608DFFA60
:1000C0008078E309F208DFFA807088828C83E30984
:1000D000F0A3DFFA806489828A83E0A3F608DFFA5E
:1000E000805889828A83E0A3F208DFFA804C80D2AC
:1000F00080FA80C680D4806980F28033801080A628
:1001000080EA809A80A880DA80E280CA803389827F
:100110008A83ECFAE493A3C8C582C8CCC583CCF02B
:10012000A3C8C582C8CCC583CCDFE9DEE7800D89D2
:10013000828A83E493A3F608DFF9ECFAA9F0EDFBD9
:100140002289828A83ECFAE0A3C8C582C8CCC58321
:10015000CCF0A3C8C582C8CCC583CCDFEADEE8807A
:10016000DB89828A83E493A3F208DFF980CC88F0EC
:10017000EF60010E4E60C388F0ED2402B40400501D
:10018000B9F582EB2402B4040050AF232345822347
:100190009008CE73EF8DF0A4A8F0CF8CF0A428CEF9
:1001A0008DF0A42EFE22BC000BBE0029EF8DF08442
:1001B000FFADF022E4CCF875F008EF2FFFEE33FE30
:1001C000EC33FCEE9DEC984005FCEE9DFE0FD5F067
:1001D000E9E4CEFD22EDF8F5F0EE8420D21CFEAD70
:1001E000F075F008EF2FFFED33FD4007985006D56E
:1001F000F0F222C398FD0FD5F0EA22C2D5EC30E729
:1002000009B2D5E4C39DFDE49CFCEE30E715B2D500
:10021000E4C39FFFE49EFE120986C3E49DFDE49CB7
:10022000FC800312098630D507C3E49FFFE49EFEDD
:1002300022C5F0F8A3E028F0C5F0F8E58215827039
:10024000021583E038F022BB010A89828A83E0F537
:10025000F0A3E022500687F009E71922BBFE07E36E
:10026000F5F009E3192289828A83E493F5F0740199
:100270009322BB0110E58229F582E5833AF583E0FC
:10028000F5F0A3E0225009E92582F886F008E6227D
:10029000BBFE0AE92582F8E2F5F008E222E5832AAE
:1002A000F583E993F5F0A3E99322BB010789828ADC
:1002B00083020A11500B09C5F027F7C5F01937F76B
:1002C00022BBFE0D09F8E325F0F3C5F019E338F37E
:1002D00022F889828A8374019325F0C5F0F8E493AB
:1002E0003822BB010DC58229C582C5833AC5830268
:1002F0000A115011C58229F808E5F026F618F5F024
:10030000E58236F622BBFE11C58229F808E225F007
:10031000F5F0F218E23582F222F8E58229F582E55D
:10032000832AF58374019325F0F5F0E4933822BB1A
:10033000010A89828A83F0E5F0A3F0225006F709CA
:10034000A7F01922BBFE06F3E5F009F31922F8BB6A
:100350000111E58229F582E5833AF583E8F0E5F0BD
:10036000A3F0225009E92582C8F608A6F022BBFEB8
:1003700009E92582C8F2E5F008F22275F0087582D5
:1003800000EF2FFFEE33FECD33CDCC33CCC582331F
:10039000C5829BED9AEC99E58298400CF582EE9B24
:1003A000FEED9AFDEC99FC0FD5F0D6E4CEFBE4CD42
:1003B000FAE4CCF9A88222B800C1B90059BA002DDC
:1003C000EC8BF084CFCECDFCE5F0CBF97818EF2F95
:1003D000FFEE33FEED33FDEC33FCEB33FB10D703C4
:1003E000994004EB99FB0FD8E5E4F9FA227818EF6D
:1003F0002FFFEE33FEED33FDEC33FCC933C910D7CC
:10040000059BE99A4007EC9BFCE99AF90FD8E0E4D8
:10041000C9FAE4CCFB2275F010EF2FFFEE33FEEDAE
:1004200033FDCC33CCC833C810D7079BEC9AE8997E
:10043000400AED9BFDEC9AFCE899F80FD5F0DAE460
:10044000CDFBE4CCFAE4C8F922EB9FF5F0EA9E423A
:10045000F0E99D42F0EC6480C864809845F022EB9E
:100460009FF5F0EA9E42F0E99D42F0E89C45F022BB
:10047000ECF0A3EDF0A3EEF0A3EFF022A8828583C9
:10048000F0D083D082120C73120C73120C73120C06
:1004900073E473E493A3C583C5F0C583C8C582C85C
:1004A000F0A3C583C5F0C583C8C582C822A4258230
:1004B000F582E5F03583F58322EC8EF0A4CCC5F00F
:1004C000CCCDF8EFA4CEC5F02DFDE43CFCE8A42E85
:1004D000C8C5F03DFDE43CFCEFA4FFE5F028FEE4D8
:1004E0003DFDE43CFC22EF4E6012EF60010EEDBBDF
:1004F000010B89828A83F0A3DFFCDEFA2289F050A7
:1005000007F709DFFCA9F022BBFEFCF309DFFCA919
:10051000F022900137E0FBA3E0FAA3E0900315F985
:10052000E0FF75F002A4F58285F083120A52FDAC5B
:10053000F090013AE0FBA3E0FAA3E0F92290031463
:10054000E0FF75F002A4F58285F083020A52900361
:1005500014E0FB25E02416F582E43401F583E0FE87
:10056000A3E0240CFFEE34FEFE7C007D0A12097429
:100570007D32120986EF24F4FFEE3401FEEB25E014
:100580002416F582E43401F58322900336E0FCA3BF
:10059000E0FD2407F582E43CF58322900314E0FF9C
:1005A000246CF582E43400F583E0FEEF25E0247648
:1005B000F582E4342EF583E49324C0F582E4342EEE
:1005C000F583EEF022EF75F002A4F58285F0832228
:1005D0002481F582E43401F583E075F002A424401F
:1005E000F582E5F0342EF58322E490010FF09001BE
:1005F000C5F0900336E0FEA3E0FF2407F582E43E59
:10060000F583E09001C6F054F022900319E0FD2537
:10061000E02455F582E43401F583229001BCE0FF2B
:1006200042ABA3E0FE42ADEFF4FF5289EEF4FE527E
:1006300099EF5295EE529A9001BCE022900315E09A
:1006400025E0245BF582E43401F58322900319E070
:10065000FF2464F582E43401F583E004F074642F30
:10066000F582E43401F58322E04401F0E490010FC7
:10067000F09001C5229001BCE0FF4289A3E0FE4258
:1006800099EFF4FF5295EEF4FE529AEF5296EE5225
:100690009B9001BCE0F45280A3E0F4529022F582DA
:1006A000E43AF583EFF022900315E02467F582E445
:1006B0003401F58322E0FEA3E02DFFEE35F0CDEF0F
:1006C000CDFF900336E0FAA3E0FB22900317E0FE93
:1006D000A3E0FF90015CE02FF090015BE03EF0E0D2
:1006E000FEA3E0FFD322E5F0900336FFE0FCA3E099
:1006F000FD22241AF582E43EF5832225E0241CF530
:1007000082E43401F58322900336E0FEA3E022FF69
:10071000F45296A3E0FEF4529B902EC07402F09027
:100720002EC4EEF0A3EFF022A3F0A37401F0A322F5
:10073000900315E0246AF582E43401F58322746D98
:100740002BF582E43401F58322E04406F090010F9A
:100750007401F02274812FF582E43401F583E022E4
:10076000900316E0FEA3E0FF22742E2FF582E434FE
:1007700001F58322F583E493FC740193FDEF227469
:1007800020902EC4F0902EC322C3E0FDEF9D748014
:10079000F86E9822EC8DF0020B2E25E02410F582E5
:1007A000E43401F583E5F0F0A322E4900171F090C8
:1007B00001BAF022E0FAA3E0FBEAFFED22F0746E4A
:1007C0002BF582E43401F583E4F022900314E00475
:1007D000F022120A27FFAEF090013722FDACF09014
:1007E0000137229001C6E0FFED22FFEEF0A3EFF00B
:1007F000D394F4EE94012225E02428F582E4340118
:10080000F58322E4938D828C83A3A322C39DFFE50D
:10081000F09CFE22900315E0FD7F0522900315E079
:10082000FD7F0422E4F0A3F090013722902EC0E473
:10083000F07402F0EF1422EC8DF0120B2E0FEF6427
:100840000322902EC07419F02275F002A424002215
:10085000120A27C39FFFE5F09E22F0900172F090EC
:1008600001BBF022E4F0A37464F022900320EFF0C7
:10087000900322120C5C00000000900320E012178D
:1008800006E0FEA3E0FF900328EEF0A3EFF0E4A360
:10089000F0A3F0A3EEF0A3EFF074FFA3F0A3F090A9
:1008A00003217401F0900321E0FFC3941040030280
:1008B0001137EF121704C083C082900320E0D0826A
:1008C000D08312175890032CE0FCA3E0FDD39FECDB
:1008D0009E400BA3ECF0A3EDF090032C801F1217A9
:1008E00000C083C082900320E0D082D083121758CA
:1008F000D390032FE09F90032EE09E4005EEF0A3DF
:10090000EFF0121700C083C082900320E0D082D0A5
:1009100083121758900328E0FCA3E0FDC39FEC9ED0
:10092000500BA3ECF0A3EDF0900328801F121700EA
:10093000C083C082900320E0D082D083121758C3B6
:1009400090032BE09F90032AE09E5005EEF0A3EF6A
:10095000F0121879021085900322120C5C0000003E
:1009600000E4900321F09003221216F4121700C045
:1009700083C082900320E0D082D08375F002120CF5
:100980008D121712121879E0B410DB90032CE0FEE0
:10099000A3E0FF900329E02FFF900328E03ECBEF78
:1009A000CBFA900322121739C39BFFEE9A12176AF3
:1009B000EEC0E0EFC0E090032EE0FEA3E0FF900366
:1009C0002BE02FFF90032AE03ECBEFCBFAD0E0FFE5
:1009D000D0E0FEC3EF9BFFEE9A12176AE47B0C1285
:1009E000179E900322120C50900322A3A3E0FFA3B2
:1009F000E0A3CFF0A3EFF0900320E0B4010F900349
:100A000026E0FFA3E090027BCFF0A3EFF09003225B
:100A1000120C5C00000000E4900321F0900321E040
:100A2000FFC394105055EF121704C083C082900387
:100A300020E0D082D083121758C3900327E09FFF95
:100A4000900326E09EFE122DE4D3EF9432EE6480F4
:100A500094809003221216F44003A380151217000D
:100A6000C083C082900320E0D082D08375F0021250
:100A70000C8D1217121218790211FC900322121613
:100A8000EDD3120C3F900322400E12173912176457
:100A9000900322120C508007120C5C00000000E44E
:100AA0007F607EEAFDFC9003221216F4D3120C3F05
:100AB000400A900322120C5C0000EA60900322A31B
:100AC000A3E0FEA3E0FF22208A030214AA90019172
:100AD000E07002A3E060030214AA1218306003025F
:100AE00014AA900209E0705C9001F41216A6FFAE01
:100AF000F09001E21216A6D39FE5F09E4003021487
:100B0000AA1216A31216B7F9E5F08FF0120B0F9088
:100B1000020B120C5C00000000121744900273F0EC
:100B2000A3F0A37404F014121789121843900199CA
:100B3000F0A3F090026212174890019FF0A3F0908A
:100B400002808004900280E4F0A3740BF0E4F5B21C
:100B5000F5BA1217AAE4FF74562F1216C70FEFB496
:100B600016F5900057E025E0902EC3F012172C9058
:100B7000027BE0FFA3E09001D3CFF0A3EFF090035E
:100B800032E0FF60030214A4758D20438D20758D23
:100B90008043AA08D2AF758B02758EA0EF701B90B0
:100BA000001DE0B42014900004E0700EE5DB20E2AC
:100BB00009758AC4758703000000758B11758A500A
:100BC00053AAF712172C902EC07419F0902EC0E083
:100BD00030E2F9902EC0E4F0902E02E0FEA3E0FF98
:100BE000C39001D4E09FFF9001D3E09EFE122DE45C
:100BF0009001D6EEF0A3EFF01217CF400302149746
:100C00009001D3E0FEA3E0FF7C007D0912097490FF
:100C10002E02E0FCA3E02FFFEC3EFE7C000D12094B
:100C2000869001D3EEF0A3EFF0E49001D6F0A3F0AC
:100C3000900209E06003021497902E02E0FEA3E008
:100C4000FF7C007D10120C9912188090031412166C
:100C5000EDD3120C3F900314400B12173912176496
:100C60001218808007120C5C00000000E47F607E98
:100C7000EAFDFC9003141216F4D3120C3F400A90C4
:100C80000314120C5C0000EA609001E51216A6FF46
:100C9000AEF07C007D09120C99900314E0F8A3E0FB
:100CA000F9A3E0FAA3E07B0A1217921218809003CE
:100CB000141216B11217A41217CF50081218307060
:100CC0000302135E90020A7401F022900314747EF2
:100CD000F0E4A3F0900315E0FDC394034003021673
:100CE000817F02123597EF6003120F8A120E87E0A0
:100CF0006003021560900315E0FF120EDBE0FCA319
:100D0000E0FDEF120D5EE0FEA3E0C39DEE9C4047C8
:100D1000900315E0900314F0120E8B7401F0900113
:100D200071E004F09001BAF0900315E0FD246D121B
:100D30000F217401F0E4FF123E57900315E0FD7F90
:100D400002123E577F02121690FD7F081238701271
:100D50000F107401F08012900315E0FDE4FF1235CE
:100D600097EF6005120F10E4F0900315E0FD7F018E
:100D7000123597EF7003021678E490017202167331
:100D8000900315E0FF120FD7E0FCA3E0FDEF120D7A
:100D90005EE0FEA3E0C39DEE9C500302163E90036E
:100DA00015E0FD900314F07F08123597EF700302F1
:100DB0001678900137E0FBA3E0FAA3E09003151248
:100DC0000CFF120DA5120F74120E87E4F090010FA4
:100DD000E0FF70099001C5E0700302168FEF6022FA
:100DE0009001C5E0601C120DC9FDF0BD2003D38049
:100DF00001C34005E49001C6F09001C6E04405023D
:100E0000163190010FE060219001C5E0701B120DBA
:100E1000CAFDF0BD2003D38001C34005E49001C6A4
:100E2000F09001C6E04401802890010FE0600302C9
:100E3000168F9001C5E06077120DC9FDF0BD20034B
:100E4000D38001C34005E49001C6F09001C6E044A0
:100E500004FDF0EF2407120ED4EDF0C28A229003B5
:100E600015E0FD120E8BE4F07F08123E579003153B
:100E7000E0FDE4FF123870900315E0FD7F01123EA3
:100E8000577F01121690246D120F217401F090010A
:100E900072E004F09001BBF0900315E004F002143E
:100EA000B4900314E0FF90017CE06F6002EFF02249
:100EB000900315E0FD123870900315E022120A2706
:100EC000FFAEF09001DFE0FBA3E0FAA3E0F9020A35
:100ED00027A3A3E0F9A3E0FF9001E5E0FBA3E0FA7C
:100EE000A3E022E0FF2456F582E43400F583E0FE1F
:100EF00075F002EFA42400F582E5F0342EF583E4CA
:100F00009324C0F582E4342EF583EEF022E47F20B2
:100F10007E4EFDFCE0F8A3E0F9A3E0FAA3E0FB229B
:100F2000900321E025E025E02413F582E43402F566
:100F30008322E0FEA3E0900322FFE4FCFDEB2FFF01
:100F4000EA3EFEED39FDEC38FC020C5043AB035396
:100F500089FC5395FC5396FC22E0FCA3E0FDA3E042
:100F6000FEA3E02290020FE4F0A3F0A3F0A3F0228E
:100F7000A3F0A37401F0A32275F002120C8DE0FE21
:100F8000A3E0FF229420FFEE944EFEED9400FDECD2
:100F90009400FC22902E42E4F0A374FFF0902E40C7
:100FA000E4F0A374FFF0227403900193F0A374E8BB
:100FB000F0222FFFEA3EFEE93DFDE83CFCE4FAF9B1
:100FC000F8020B97C98FF0020B0F902EC07402F03D
:100FD00022F9EB2FFFEA35F0FEED39FDEC38FC028B
:100FE0000C50A3E0FEA3E0FBCAEECAE4F9F822909D
:100FF0000280E0FEA3E0FFC39001D7E09F9001D6FE
:10100000E09E22902E42E0FEA3E0FF7C007D1412C1
:1010100009749001FD22900316E0FEA3E0FF227EFA
:10102000007F047D007B01020CC6F9E4F5F0020BA1
:101030000FFFE5F0F0A3EFF0225389FC5395FC433A
:1010400096032225E0246BF582E43402F583E02246
:1010500090001DE06420229001DDE0FFA3E09002FB
:1010600071CF22E490019BF0A3F022900191E4F073
:10107000A37464F022F9746175F0A8020B0F90005C
:101080003C7410F022F0900195F0A374C8F022C3D4
:10109000EF9414EE6480948022900321E004F02207
:1010A000900314020C501216B8F912169DFDACF004
:1010B000D39FEC9E40379001E51216A6FFC3ED9F2B
:1010C000FFEC95F0FED3EF9430EE9475400D900355
:1010D000167475F0A37430F002191012169DC39F98
:1010E000FFE5F09E900316F0A3EFF080431216A3E5
:1010F000FFAEF09001E51216A6FDACF0C39FFFEC29
:101100009EFED3EF9410EE9427400C90031674D8F3
:10111000F0A374F0F080121216A3FFC3ED9FFEEC53
:1011200095F0900316F0A3CEF0E4900316F0A3F030
:10113000900209E060441217F6D39400EE648094A4
:1011400080401A9001F71216A6FDD3EF9DEE95F0A0
:10115000400B900199E4F0A37432F08027D3900102
:101160009AE09400900199E0940040189001E212F6
:1011700016A6900316121811800A90019D7403F0B0
:10118000A374E8F0D3900317E09400900316E06492
:101190008094805003021A37E0F9A3E0FF9001E247
:1011A0001216BB1217A41217F6EE3395E0FDFCE4FD
:1011B0007BB87A88F9F8C3120C29500A9003167488
:1011C00088F0A374B8F0D390019CE0940090019B48
:1011D000E09400401C1217F6D39400EE64809480D3
:1011E000400F7C007D0A1209DB900316EEF0A3EF9E
:1011F000F0900209E0603F90019DE07002A3E07072
:10120000359001EB1216A6FFAEF07C007D0F120C9C
:1012100099C8ECC8C9EDC9CAEECACBEFCB1217F614
:10122000EE3395E0FDFCEB7B101217929001EB1270
:1012300016BBF9EE800F900316E0F9A3E0FF9001D2
:10124000EB1216BBC98FF0120B0F9001EB1216A612
:1012500024A8FFE5F0801D9001E21216BB12180AC7
:101260009001EB1216BB12180A900317E024A8FF96
:10127000900316E03461F99001E81216BB1217A42E
:1012800022E4FB120F1EE064016003021C2B746752
:101290002B120E8DE0FA6003021B41EB64017058C3
:1012A000120D6A120DE2FFF0BF2003D38001C3408C
:1012B00005E49001C6F09001BBE0FF6401701B9053
:1012C00001BAE09001C6B40109E04409120E4B04D2
:1012D0008015120E4812103A8016EF9001C6B40223
:1012E0000BE04405120E4B120F9D8004120E48F0C5
:1012F000120FC3120D72EFF0EB6402705B120D6AF5
:10130000120DE2FFF0BF2003D38001C34005E4903B
:1013100001C6F09001BBE0FF6401701B9001BAE0D0
:101320009001C6B40106120F29E48020E0440412A3
:101330000E4B12103A8019EF9001C6B40205E0443A
:10134000058003E04404F0E490010FF09001C5F043
:10135000120FC3120D72EFF090019F121044021C85
:1013600024EA64016003021C24EB6401706A120D1C
:101370006A120DE2FFF0BF2003D38001C34005E4F1
:101380009001C6F09001BAE0FFB4020B9001C6E0F4
:10139000440A120F2C8013EF64017026900172E052
:1013A0009001C6B4010C120F29E49001C5120F9DE3
:1013B000801EE04402120F2CE49001C5F0120F8B46
:1013C000800E9001C6E04402120F2CE49001C5F09B
:1013D000120FC3120D72EFF0EB64027067120D6A08
:1013E000120DE2FFF0BF2003D38001C34005E4905B
:1013F00001C6F09001BAE0B402139001C6E0440ABD
:10140000F09001C57401F090010FF0802F900171F0
:10141000E06401701C9001BBE09001C6B40105E0DE
:1014200044098013E04408120E4B04F0120F8A8026
:101430000B9001C6E04408120E4B04F0120FC312C9
:101440000D72EFF0120F1EE4F0C28A0BEB64036022
:1014500003021A637F04227E007FFF7D007B017AF6
:10146000007906120CC69003367400F0A37406F0DF
:101470009001C77400F0A3746CF09002877400F0C0
:10148000A37456F09001347401F0A37400F0A374B7
:10149000BAF090013A7401F0A37400F074AE120F28
:1014A000087400F0A37496F09001377401F0A374EF
:1014B00000F0A374C8F09001407401F0A37400F030
:1014C00074D4120F087400F0A37421120F09740170
:1014D000F0A37404F09000547403F0902DE0E493B2
:1014E000120EC8F5828C83A3EFF0900003E0FFEDAD
:1014F0002404120D74EFF0900002E0FFED240512B9
:101500000D74EFF0900005E0FFED2406120D74EF6E
:10151000F0902E73120FE3F0902E75120FE3A3F0EC
:10152000902DE2E493FFED2412120D74EFF0902D54
:10153000E3E493FFED2414120D74EFF0902E6FE4AA
:1015400093FFED2432120D74EFF0902E71E493FFAF
:10155000ED2433120D74EFF0ED2434120D74E4F029
:10156000ED2435120D747464F09001497401F0A3F8
:101570007400F0A3743E120F097400F0A3744012BB
:101580000F097400F0A37442120F097400F0A374E1
:1015900044F090014F120D14E475F0EB120B0F9014
:1015A0000152120D14E475F019120B0FE4FF75F0DF
:1015B00002EFA42401F582E5F0342EF583E493FED6
:1015C00074562FF582E43400F583EEF0EF25E02425
:1015D00077F582E4342EF583E493FE746C2FF58264
:1015E000E43400F583EEF0746C2F120D820FEFB42B
:1015F00016BC902F56E090005AF0902F56E09000C5
:1016000070F09001017401F0900100F090003C74C2
:1016100010F090001DF090002AF0A37420F02290AA
:101620000315EFF09003187408F02405A3F0120DD1
:1016300011900315120D20120FBC120D1475F0023B
:10164000EF120D25120FEC900316F0A3EFF0122D00
:10165000E4900318120F694003021EC0900315E0C6
:10166000FF120F14E0600AEF120E20E4F0A3F080E6
:101670000C120F40120E1CEE8FF0120A11120E1CEB
:10168000120EBF940FEE648094804019900315E011
:10169000FD120E20E4F0A3F0120D11ED120DA6E4E0
:1016A00075F0018021C3EF94F1EE6480947F5019AE
:1016B000900315E0FF120E20E4F0A3F0120D1112BA
:1016C0000DA574FFF5F0120AC2900315E0FD242E5B
:1016D000120F4CE4F07F04123E57120FF4021F87E2
:1016E000900315E0FF242E120F4CE07048120F49B2
:1016F0007401F0120F40122DE4C3EF9432EE6480B7
:1017000094805031900137120D14900315E0120DA2
:1017100022FBAAF0120F407C007D031209DBC3EB11
:101720009FFFEA9EFE120D11900315E0120DA6EE2A
:101730008FF0120B2E120F40122DE4900315E0FDD6
:10174000120EDBE0FAA3E0D39FEA9E4026746A2DD6
:10175000120F16E07023900315E07F051238701207
:101760000FF4123597EF6011120CF2120DA5120F43
:10177000748006120FF4123E57C3900317E094F8DA
:10178000900316E06480947F501A120FFC12387098
:10179000120FFC123597EF6011120CF2120DA51208
:1017A0000F748006120FFC123E57120D1190031594
:1017B000120D20120FBC120D1475F002EF120D2540
:1017C000120FEC900140120D14900315E0120DA6BB
:1017D000EE8FF0020B2EC0E0C083C082C0D0E9C003
:1017E000E0ECC0E0EDC0E0EEC0E0EFC0E0D2AFE57D
:1017F000DB30E41D900004123C62E4F0E5DB30E1F4
:10180000028038900335E5DFF0900338E4F00221E0
:1018100051E5DB30E516900332123C62E06005E4EE
:10182000F0022151900004E4F002215190033BE4C6
:10183000F0E5DB30E135E5DB30E009123C1FE0F597
:10184000DF022151900339E0FFB4080F208A0CD247
:101850008A123C352407123C2EE4F0EF641A600330
:1018600002215190033A04F0022151900338E070B4
:101870000EA3E5DFF0900338123C62F00221519094
:101880000339E0903D5B93FFB4FF0F900335E5DF34
:10189000F0900339E004F002214BEF640F702C90BC
:1018A0000339E0FF90033CE0FCA3E0FD123C2DE097
:1018B000540FF0900339E0FF04F0ED123C2DE0FFEF
:1018C000E5DF54F0FEEF4EF002214B123C1FE5DF46
:1018D000F0900339E0FFB4090B123C352408123CA8
:1018E0002EE0F5D3EFB40A12900336E0FEA3E02415
:1018F00009F582E43EF583E0F5D4900339E0B43491
:101900001C123C35FD2432123C2EE09001C9123CE1
:10191000462433123C2EE09001C9123C4F9003390B
:10192000E0F9B4361C123C35FD2434123C2EE09014
:1019300001AC123C462435123C2EE09001AC123C26
:101940004FE9B42826123C35FD2426123C2EE07FB8
:1019500000FE9001C0F0A3EFF0ED2427123C2EE032
:10196000FDEDFF9001C0EEF0A3EFF0900334E00432
:10197000F075DBFFD0E0FFD0E0FED0E0FDD0E0FC72
:10198000D0E0F9D0D0D082D083D0E032900180E096
:1019900024FE601C14602F1470030222AE24036026
:1019A000030223019001807402F01234381208738C
:1019B00012084E7F017E00122B729001807403F09A
:1019C000E49001B8F022122EA2900179E070030297
:1019D000228F9001B8E004F0E4900313F090031319
:1019E000E0FFC39403400302228A900134120D14D5
:1019F000900313E0FE120D0275F002EE120DA91213
:101A00000F74900134120D14900313E0FE120D2296
:101A1000120FBC120D1475F002EE120DA9120F7404
:101A2000EF6401703A120EE7FF240A120ED4E4F0BC
:101A3000EF240B120ED4E4F0900134120D14900335
:101A400013E0120D22120EC6240E120D74EFF09048
:101A50000313E0120D22FFED240F120D74EFF0902E
:101A60000313E06402703A120EE7FF240C120ED446
:101A7000E4F0EF240D120ED4E4F0900134120D14B2
:101A8000900313E0120D22120EC62410120D74EFF3
:101A9000F0900313E0120D22FFED2411120D74EFEC
:101AA000F0900313E004F00221BDE4900179F0907E
:101AB00001B8E0C39403406990010B747EF0E49098
:101AC000017AF09001B8F09001807404F022900146
:101AD000B97401F012376912397390027FE0700314
:101AE000122EA2123769900179E064017033122F2F
:101AF0007E123769E4900313F0900313E0FFC39460
:101B000003500E12273B123769900313E004F08054
:101B1000E81214AB121A61900180EFF0E4900179A1
:101B2000F0229001AEE060030223B404F0E4FFEF82
:101B300025E024EBF582E4343D120F5425E0242205
:101B4000F582E43401F583ECF0A3EDF0EF25E02419
:101B5000E5F582E4343D120F54120EDBECF0A3EDF8
:101B6000F0EF25E024F1F582E4343D120F54120F1A
:101B7000D7ECF0A3EDF00FEFB403B490011EA3E097
:101B8000120EC8F5828C83A3A3EFF0900120A3E08E
:101B9000120FE5A3F09001B6120F942432120D74C7
:101BA000EFF0ED2433120D74EBF0900109120F9455
:101BB0002434120D74EFF0ED2435120D74EBF09017
:101BC00001B2120F942426120D74EFF0ED242712A7
:101BD0000D74EBF0120EE7F5828E83A3A3E0FF7E77
:101BE0000090011EE07003A3E06F600890011EEEFC
:101BF000F0A3EFF0120EE7F5828E83A3A3A3E0FF1C
:101C00007E00900120E07003A3E06F600890012047
:101C1000EEF0A3EFF09001B6E0FEA3E09001C91250
:101C20000ECB6F7002EC6E60089001B6ECF0A3ED85
:101C3000F0900109E0FEA3E0FF9001ACE0FCA3E01E
:101C4000FD6F7002EC6E6008900109ECF0A3EDF0FE
:101C50009001B2E0FEA3E0FF9001C0E0FCA3E0FD34
:101C60006F7002EC6E60089001B2ECF0A3EDF01220
:101C70000EE7F5828E83A3E0B4AA03123B28120E6E
:101C8000E7FF120ED2E0B4100BEF120ED2E4F09088
:101C9000027D04F0120EE7FF241B120ED4E0700D3B
:101CA000EF241C120ED4E0B41003123AC4229002A6
:101CB00009E0700302251990020B120C5C00000071
:101CC00000121744121787E4900275F0900264E046
:101CD000FEA3E0FFD39400EE940050030225E7D367
:101CE000900263E09400900262E0940050030225A9
:101CF000E790025AE0FCA3E0FDD3EF9DEE9C401973
:101D0000900265E09DFE900264E09C900260F0A36A
:101D1000CEF0E490025E0225E4900264E0FEA3E0CF
:101D2000FFC390025BE09FFF90025AE09E90025E2C
:101D3000F0A3EFF0E4A30225E490020B1216F4E9FD
:101D4000C0E0EAC0E0EBC0E01216A3FFE4FCFDD067
:101D5000E0FBD0E0FAD0E090020B1217B190021035
:101D6000E004F0700690020FE004F0900193E07040
:101D700002A3E060030225DB90020B121739FFEE8D
:101D8000C0E0EFC0E01217C2D0E0FFD0E0FE120BBF
:101D90009790020B120C509001E51216A6240AFF30
:101DA000E435F0FEE4FCFD90020B1216F4D3120CA5
:101DB0003F401F900212E004F07006900211E00410
:101DC000F0D3900212E0940A900211E094004012C5
:101DD000800090020B1216B11217A4E4900211F0C9
:101DE000A3F0E4900275F090020B120C5C0000006E
:101DF00000E490020FF0A3F012178790025E121712
:101E000047900264F0A3F022900273E0FEA3E0FF8B
:101E1000C39404EE9400502F9001DDE0FCA3E0FD9C
:101E2000EF25E0FFEE33FE746B2FF58274023EF572
:101E300083ECF0A3EDF0900274E004F070069002E1
:101E400073E004F00226B290031E7401F090031EAA
:101E5000E0FF121823FCA3E0FDEF25E02469F582E2
:101E6000E43402F583ECF0A3EDF090031EE004F0FF
:101E7000E0B404D9900209E060191216A312271DDC
:101E8000500C1216A3FF900271E5F00226AE121854
:101E900037803B1216A312271D50309001E5121611
:101EA000A6FFC39001DEE09FFF9001DDE095F0FE0C
:101EB000122DE412186F50059001E580039001DFA8
:101EC0001216A6FF900271E5F08003121837F0A3F6
:101ED000EFF090031A120C5C00000000E490031E67
:101EE000F090031EE0FFD3900274E09F900273E035
:101EF0009400401C90031A1216F4A3E0121823FE5B
:101F0000A3E090031A12171990031EE004F080D189
:101F100090031A121739FFEEC0E0EFC0E090027391
:101F20001217C3D0E0FFD0E0FE120B9790031A12F5
:101F30000C5090031AA3A3E0FEA3E0FF22FF900140
:101F4000DDE0FCA3E0FDC3EF9DFFE5F09CFE122D5C
:101F5000E4C3EF9428EE6480948022900314EFF0A1
:101F6000120D11120D1D120FBC120D1475F002EF9F
:101F7000120D25C39DE5F09C4029900137A3A39045
:101F80000314E0120D22FDEF120F7AEDF0900140E4
:101F9000120D14120D1DFDEF120D5EE5F0F0A3ED14
:101FA000F0801F900314E0FF120D5E121004120D5A
:101FB0001475F002EF120D25FF900314E0120F7A52
:101FC000EFF0900314E0FF120D5EE0FCA3E0C39479
:101FD00032EC94005008EF120D5EE4F0A3F0900391
:101FE00014E0FF64017052EF120D5EE0FEA3E0907A
:101FF0000315120FCA4008120D2EEEF0A3EFF09059
:102000000314E0FD120D5EE0120EA1240A120E7EF2
:10201000ED120D5EA3E0FFEB240B120E7E120D11EC
:10202000120D1DFDEF120D5E120E95240E120E7E86
:10203000CFEDCFEB240F120E7E900314E0FF64026D
:102040007052EF120D5EE0FEA3E0900317120FCA6C
:102050004008120D2EEEF0A3EFF0900314E0FD12F5
:102060000D5EE0120EA1240C120E7EED120D5EA389
:10207000E0FFEB240D120E7E120D11120D1DFDEF6F
:10208000120D5E120E952410120E7ECFEDCFEB24B2
:1020900011120E7E22C0E0C083C082C0D0D2AF90A9
:1020A00001A4E004F0D3900192E09400900191E04B
:1020B0009400400CA3E024FFF0900191E034FFF085
:1020C000D3900194E09400900193E09400400CA31D
:1020D000E024FFF0900193E034FFF0D3900196E00C
:1020E0009400900195E09400400CA3E024FFF09050
:1020F0000195E034FFF0D3900198E09400900197AF
:10210000E09400400CA3E024FFF0900197E034FF3E
:10211000F0D390019AE09400900199E09400400C73
:10212000A3E024FFF0900199E034FFF0D390019CEC
:10213000E0940090019BE09400400CA3E024FFF0A9
:1021400090019BE034FFF0D39001A2E09400900155
:10215000A1E09400400CA3E024FFF09001A1E03442
:10216000FFF0D39001A0E0940090019FE094004024
:102170000CA3E024FFF090019FE034FFF0D3900126
:102180009EE0940090019DE09400400CA3E024FFA9
:10219000F090019DE034FFF0D0D0D082D083D0E029
:1021A00032900319EFF0900137120D1490031912B9
:1021B0000D20FDACF0900134120D1475F002EF12F9
:1021C0000D25120FEC120DEAEE8FF0120A11ED122E
:1021D0000DEFE0FEA3E0FF122DE4D3EF9414EE64C4
:1021E0008094805058900319E0120DEF120EBF94A6
:1021F00003EE648094804016120DEA121004120D52
:102200001475F002ED120DA9E475F0018020C3EF02
:1022100094FDEE6480947F5018900319E0FF120D36
:10222000EF121004120D14120DA574FFF5F0120A2E
:10223000C2900319E02464120E40E4F022900319C6
:10224000E0120DEFE0FEA3E0FF122DE4900319E091
:10225000120EDBE0FCA3E0D39FEC9E400B120E2C91
:10226000E0D3940240378009120E2CE0D394014051
:102270002C900319E0FF120DEFE4F0A3F09001346D
:10228000120D1475F002EF120D25120FB5120D1478
:10229000900319E0120DA6EE8FF0120B2E221217EA
:1022A0002C1217AA902EC4E4F0A3F0900318F0901B
:1022B00003181216C3900318E004F0E0B416F012ED
:1022C0001774E4900318F0900318E0FFC3940250D1
:1022D00024EF14600D047015902EC57401F0E4FF16
:1022E0008008902EC57402F07F01122C5D900318B7
:1022F000E004F080D243890312173243800312179F
:10230000AA903DC5E493FE740193FF902E40E0FC3B
:10231000A3E0C39FFFEC9EFE12186F9001D2500500
:102320007410F080037487F0903DC7E493FE74014D
:1023300093FFFD902E42E0FAA3E0C39DFDEA9EFCD0
:10234000D3ED9414EC648094804008902E42EEF01B
:10235000A3EFF09001D2E0FF900336E0FCA3E0246D
:102360001DF582E43CF583EFF01217E31216BBF97A
:10237000EE8FF0120B0F902E40E0FEA3E0FF12094B
:10238000749002061216BBF9EE8FF0120B0F1218A2
:102390001922900316EEF0A3EFF04E6003122A7E8E
:1023A000E4900273F0A3F0900253F07F10123B858B
:1023B00012184BA37403F0A374E8F09001DDE0F968
:1023C000A3E0FFA31216BB1217A49001E21216BBE2
:1023D00012180A9001E81216BB1218559001EB1260
:1023E00016BB12180A9001EE1216BB1218551218DD
:1023F0005EE4900209121865A3E4F0A37432F09031
:102400000254120C5C00000000E4900258F0A3F0AB
:102410009001FA1216A690025A1218119002661232
:102420000C5C00000000E490026AF090020B120CB9
:102430005C000000001217449002621217489002DC
:102440005E1217489001DD1216B31217A4E4900231
:102450000AF0900316E07002A3E0600F900215E00E
:10246000FFA3E0900278CFF0A3EFF0E49001A1F099
:10247000A3F090019FF0A3F090027AF0229003194C
:10248000EFF090031EE4F0A374FFF0E4A3F0A3F0D8
:10249000A304F0A374FFF0902EC07402F0902EC33A
:1024A00014F0E490031AF0A3F090031AE0FEA3E006
:1024B000FFC39409EE94004003022D41EF9407EE10
:1024C000940040067E007F01801990031AA3E00467
:1024D000FFE47E01C8EFC8088006CEA2E713CE1342
:1024E000D8F8FF90031CEEF0A3EFF0121022902E0C
:1024F000C0E030E2F9900319E0FF121029120DC07C
:10250000E0FCA3E0FD902EC07402F0D3ED94FFEC4C
:102510009401401790031CE0FCA3E0FD75F002EF6E
:10252000120DBDEC8DF0120A118025900319120DC9
:10253000B9C083C082E0FEA3E0FF90031CE0FCA3CF
:10254000E0FDC3EF9DFFEE9CD082D083F0A3EFF0BF
:1025500090031BE004F0700690031AE004F0022CD4
:10256000897F00227E007FA07D007B017A0179DDDA
:10257000120CC69001DF7401F0A37400F0744612CF
:1025800017507400F074481217507400F0A3744A86
:102590001217517400F0A374341217517400F0A391
:1025A00074301217517400F0A3742EF09001FA7475
:1025B00001F0A37400F0A374281217517400F0A363
:1025C000741E1217517400F0A37424F0F9900206DF
:1025D0007401F0A37400F0A3E9F09001F17401F02C
:1025E000A37400F0A374381217517400F0A3742C74
:1025F0001217517400F0A3743AF022023EF4000066
:102600000E00AB14EE30E707C3E49FFFE49EFE220A
:10261000740A2F123528E4F02200000000000000A8
:10262000021003030A070D100E800FFF0C020BFFB0
:1026300023F724022502070127202A2028022B0243
:1026400029032C032D202E202F102620000000000F
:102650000001000000020000000300000004000070
:102660000005000000060000000700000008000050
:1026700000090000000A0000000B0000000C000030
:10268000000D0000000E0000000F0000001001000F
:10269000023203640464021103060A100D100E8056
:1026A0000FFF0C020BFF23F424042504070127105D
:1026B0002A1028042B0429032C032D202E202F1050
:1026C0002620120DFB120EEFE4FF746C2F120D8208
:1026D0000FEFB416F5E4FF12100C60151460192406
:1026E000027027120F5F7401F0902ECA7410F080F0
:1026F00019902EC474408005902EC47480F0902EE2
:10270000C37401F0902ECA7408F0121022902EC0EB
:10271000E030E2F9120F34121029120DC0E0FCA3D0
:10272000E0FD900134120D14120DA512101770A7C0
:10273000E4FF12100C601314601924027027120FAA
:102740005F7410F0902ECAF0801B7440120F6174F9
:102750000C800B902EC47480F0902EC37411F090F6
:102760002ECA7408F0121022902EC0E030E2F91246
:102770000F34121029120DC0E0FCA3E0FD900134CB
:10278000120D14120DA512101770A7902EC4E4F0AC
:10279000902EC0F0120E559001797401F022123182
:1027A000EAE4900314F0900314E0FFC394034003A1
:1027B000023048EF700302301C122981900314E0AC
:1027C000FF121DFF9001BFE0601F90010FE0701924
:1027D0009001C5E07013900140120D14900314E0B5
:1027E000120DA6E4F5F0120B2E900140120D14907C
:1027F0000314120D20FDACF0C39406EC64809480A9
:102800005002804DC3ED9432EC648094805050901F
:102810000140120D14900314E075F002A4F582E952
:102820002582F9EA35F0FA120A27FFAEF07C007D26
:10283000021209DBEE8FF0120B0F80239001401281
:102840000D14900314120D20C3E5F06480948050A1
:102850000E900140A3A3120DA5E4F5F0120B2E90EB
:102860000314E004F0022F86E4900179F022120DA7
:10287000FB120EEF900100E0600FE4900314F012E1
:102880000D7B120FABE0B416F6E4900314F0900346
:1028900014E0FFC39403501174812F120DB2E4F0C1
:1028A000A374FFF0120FAB80E5E4900314F09003E3
:1028B00014E0FFC394035064EF14600F14601424F9
:1028C000027016902EC47420F0800E902EC47440B6
:1028D000F08006902EC47480F0900314E0248112DE
:1028E0000F37FF122C5DEF702D900314E0B4010F31
:1028F000120DB0E0FFA3E09001AFCFF0A3EFF09096
:102900000314E0FFB4020F120DB0E0FFA3E090014A
:102910007ECFF0A3EFF0120FAB02308E123C6912A3
:102920000E55900100E06014E4900314F0120D7B4A
:10293000120FABE0B416F6E4900100F022758A5055
:10294000538AEF9000037411F09000027422F0900B
:1029500000057433F075997F759A80E4FFFEC29686
:102960000020970CD296003097069000037487F0F1
:102970000FBF00010EEF640A4E70E37589FE758982
:1029800001E4FEFFC2810020800CD281003080066D
:102990009000037487F00FBF00010EEF640A4E70C1
:1029A000E37590FF75993F759AC07580FF7589FC36
:1029B000759503000000E4FEFF3080093081063089
:1029C00096032097069000027487F00FBF00010E57
:1029D000EF640A4E70E3E4F5AB75AC1DF5ADF5AFF1
:1029E0007589FF75913E75991FF59675931CF59B3A
:1029F000F595F592F59A75AE0675D30575D40575FE
:102A0000800CD28A90010504F0229003157408F01E
:102A10002405A3F0E4FF122981120D11120FB21246
:102A20000D14121030FE900317F0A3EFF0122DE4F6
:102A3000900315120F69501C120EAB940AEE6480BD
:102A4000948040028044C3EF94F6EE6480947F50FB
:102A500065023285900317E0FEA3E0FF122DE4909B
:102A60000316D3120F6A4016900137120D14120A82
:102A700027FF120D11E5F08FF0120B0F8038120EA8
:102A8000AB9464EE648094804010E490015BF0A30A
:102A9000F0120D11E475F0018019C3EF949CEE64FF
:102AA00080947F5011E490015BF0A3F0120D11743B
:102AB000FFF5F0120A8A120D11120FB2120D141244
:102AC0001030F9900140E0FBA3E0FAA3E0C98FF0D9
:102AD000020B0F41000400410106104100000041BB
:102AE00001BC004101BD004101B8004101B10041FC
:102AF00001B9004101C6004101AE004101BE0041E3
:102B000001B40041010F004101C5004101CC004169
:102B100001B5004101BF0041010C004101CB005053
:102B200001810D0E0F101010101010101010101049
:102B300010104103380041033900420330000041C6
:102B4000033200410334004103330041033B0041A1
:102B5000033A00410335104101CD004101D210413B
:102B600001CE0042028300C84101D8004102860024
:102B7000410282004101DC0041027D0041027F00F0
:102B80004101D00041027E01410285004101D10096
:102B90004101CF10410289000090010CE0900283B6
:102BA00060097405F0A374DCF08006E4F0A374C837
:102BB000F09001E21216A6FFD3900284E09F9002EB
:102BC00083E095F0401C900209E0604A9001F71202
:102BD00016A6FFAEF09001E21216A6C39FE5F09E86
:102BE000403490019BE07002A3E07054900209E031
:102BF000701C9001E51216A6FF9002621218129046
:102C0000025AE0FFA3E0900264CFF0A3EFF090023D
:102C1000097401F0802A90001DE0B42005121843C9
:102C2000800990019BE4F0A374C8F0E4900209F0DD
:102C3000900199F0A3F012185EE4900262F0A3F004
:102C4000900209E0601190002AE090003CB410046A
:102C50007410F0227420F022E49001AEF09001C9CB
:102C6000F0A374C8F09001B6E4F0A374C8F090012A
:102C7000ACE4F0A374A0F0900109E4F0A374A0F018
:102C80009001B21210449001C0121044E4FFEF1200
:102C90000DEFE4F0A3F0EF120E20E4F0A3F0746166
:102CA0002FF582E43401F583E4120E3CE4F0EF25C5
:102CB000E02473F582E43401F583E4F0A3F0746753
:102CC0002F120E8DE4F0746D2F120F21E4F090019D
:102CD00070747EF0120F49E4F074312FF582E43401
:102CE00001F583E4F00FEF640370A3E4900171F049
:102CF000A3F09001BAF0A3F090017C747EF09001F3
:102D00000BF0E490017BF022EF75F003A4249CF516
:102D100082E43402F583E58222F583E493FE7401B4
:102D200093FFE4FCFD902F60E0F8A3E0F9A3E0FA44
:102D3000A3E02FFFEA3EFEED39EC38222EF582E4C7
:102D40003583F58322740A2BF582E43403F583225C
:102D5000E4E075F008A424BAF582E43402F5832295
:102D6000EFF0FCA3E0FE131313541F2225E0248A86
:102D7000F582E43402F58322E0FF74017E00C8EF9F
:102D8000C80822902F60A3A3E0FEA3E0FF22F583F2
:102D9000C37401939FE4939E2225E024B0F582E45E
:102DA000343E22E0FCA3E0FDD39FEC9E2225E024EC
:102DB000C4F582E4343E2290031BEDF090031A1216
:102DC0003540A3F0EE5407A3F090031CE0FFEC1293
:102DD00034E92F12351DE0FD7C0090031D1235589B
:102DE0008005C333CE33CED8F9FFEE5CFEEF5D4EE7
:102DF000606212356390031A123530C083C082902E
:102E0000031BE0D082D08375F002120C8D12358343
:102E10005042C3EF9DFFEE9CFE90031AE0FD123579
:102E20007912356E402E90031CE0FFED1234E92F2D
:102E300012351DC083C082E0FF90031DE0FE7401C7
:102E4000C8EEC8088002C333D8FCF45FD082D083B8
:102E5000F07F01227F002212172C1217AA902EC594
:102E600004F0902EC4E4F0902EC07419F07A037927
:102E7000201217FFE4FF902EC0E030E2F9902E0000
:102E8000E0FCA3E0FD900321E02DF0900320E03C66
:102E9000F0902E02E0FCA3E0FD900323E02DF090E3
:102EA0000322E03CF0EFC394015007902EC0E054A1
:102EB000FBF00FEFB402BF902EC5E4F0902EC0F0EF
:102EC000438903121732438003900253E075F004E4
:102ED000A42413F9740235F0C8E9C8FC7D017B0114
:102EE0007A0379207E007F0412094E900253E00499
:102EF000F0E0540FF02290033AE07003023768E4E8
:102F000090033AF012172C1217AA902EC4E4F0A3E3
:102F1000F0900316F09003161216C3900316E00407
:102F2000F0E0B416F0902E42E0FFA3E0900317CF3C
:102F3000F0A3EFF0121774E4900316F0900316E07C
:102F4000FFC394025017EF14700B902EC57402F05B
:102F50007F01122C5D900316E004F080DF438903AB
:102F60001217324380031217E31216BBF9EE8FF0EB
:102F7000120B0F1217AA900317E0FFA3E0902E4246
:102F8000CFF0A3EFF0121819229001B5E0146019E8
:102F90001460492402706430885C1237DC9001CBE5
:102FA0007401F090010CF0804D7F02123E27EF601B
:102FB0000A7F02122DF0E49001CBF020883D9001B1
:102FC000B57402F09001BF14F0E49001CBF09001D1
:102FD0000CF07F03122DF07F03023D917F03123E20
:102FE00027EF60177F03122DF0208807E49001B5CA
:102FF000F080031237DCE49001BFF0229001B57439
:1030000001F07F02122DF07F02123D9122900254B6
:103010001216F4E9C0E0EAC0E0EBC0E09001FA1259
:1030200016A6FFE4FCFDD0E0FBD0E0FAD0E0900271
:10303000541217B1900259E004F07006900258E063
:1030400004F0900195E07002A3E0704390025412E6
:103050001739FFEEC0E0EFC0E01217C2D0E0FFD09A
:10306000E0FE120B97900254120C50900254A3A34E
:10307000E0FFA3E090025ACFF0A3EFF090025412C9
:103080000C5C00000000E4900258F0A312186522C6
:1030900090031BEDF090031A123540FDEE5407A388
:1030A000F0EC1234E92D12351DE0FB7A0090031C80
:1030B0001235588005C333CE33CED8F9FFEE5AFE11
:1030C000EF5B4E704D90031AE0FE1234E92D12357D
:1030D0001DC083C082E0FF90031CE0FD7401C8EDB9
:1030E000C8088002C333D8FC4FD082D083F0EE12E0
:1030F00035791234F990031A123530C083C08290AA
:10310000031BE0D082D08375F002120C8DEEF0A389
:10311000EFF022023D25E493A3F8E493A34003F6E5
:103120008001F208DFF48029E493A3F85407240C0B
:10313000C8C333C4540F4420C8834004F4568001EC
:1031400046F6DFE4800B0102040810204080903234
:10315000B3E47E019360BCA3FF543F30E509541FE4
:10316000FEE493A360010ECF54C025E060A840B8F0
:10317000E493A3FAE493A3F8E493A3C8C582C8CA6E
:10318000C583CAF0A3C8C582C8CAC583CADFE9DE41
:10319000E780BEE49001A4F0121830703290027FF4
:1031A000E07008900191F0A37464F090027F7401C4
:1031B000F09001D1F090002BE0B420081239F31206
:1031C00012A78003123CED9001A37401F08041E44A
:1031D00090027FF09001D1E06024900285E004F03D
:1031E000E0C39407500B90011EE4F0A374FAF08042
:1031F0000DE49001AEF0900285F09001D1F09000C6
:103200002BE0B420031239F39001A3E06002E4F054
:10321000023EF490027DE0700C9001BFE0700690D9
:1032200001CBE0600CE4FFFE122B72E490027DF013
:103230002290019FE07002A3E060051218307039FF
:103240001236D67F01123B851225E8900314EEF06A
:10325000A3EFF07B017A037914123BD2900314E0C0
:10326000F9A3E0FF9001DF1216BB1217A412188613
:103270001233791237ED12248E123CB222902EC0F6
:10328000E4F09001BDF09001BCF0FC74812C120FB1
:1032900037FE131313541FFDEE5407FEED14601B8D
:1032A00004702E9001BCE0FD7401C8EEC8088002D5
:1032B000C333D8FC4D9001BCF080169001BDE0FFF7
:1032C0007401C8EEC8088002C333D8FC4F9001BD1A
:1032D000F00CECB403B5120DFBF45296A3E0F452DB
:1032E0009B7F03227F007E08E4FDFC900313F0A384
:1032F000F0758A10538AEF000000EF123C58FB90E3
:103300000314E02BF0900313E03400F00DBD000136
:103310000CBC37E6BDE0E3900313E0FCA3E0FDEC5A
:10332000FF900336E0FAA3E0FB241BF582E43AF5B4
:1033300083EFF0EB241CF582E43AF583EDF0758A17
:1033400050538AEF000000229003137408F0A3E4A6
:10335000F0A3743FF0A374DFF0E4FDFCF9758A106C
:10336000538AEF000000900313E0FEA3E0123C58E4
:10337000FF69F90DBD00010CBC37EBBDDFE8900320
:1033800015123C3DE493699003367009123C3DA34D
:10339000740EF08006123C3DA3E4F0758A50538A07
:1033A000EF0000002290031AEFF01217AAE4FF7456
:1033B000562F1216C70FEFB416F57A03791C1217A1
:1033C000FFE490031BF090031AE0FFA3E0C39F50BB
:1033D0000B12363790031BE004F080EA902EC0E415
:1033E000F01218197F0112104B9001DDEEF0A3EFDF
:1033F000F022900316EBF0A3EAF0A3E9F09001911C
:10340000E07002A3E0703790020AE06031E49002BD
:103410000AF090031904F07F01123B851225E89011
:1034200003161216BBF9EE8FF0120B0F900319E082
:1034300004F0E0C3941040DF12184B12184322909E
:103440000339E0FF04F090033CE0FCA3E02FF58299
:10345000E43CF58322900336E0FCA3E022E0FEA3E7
:10346000E0F5828E83227F00FEF0A3EFF0ED22FDD7
:10347000EDFFEEF0A3EFF0222DF582EE3CF583E4B4
:1034800093227401F090033B22900105E06042C357
:103490009001B0E094209001AFE0940050069000BD
:1034A000057487F0C390017FE0942090017EE09442
:1034B0000050069000057487F0E4900105F090003C
:1034C00005E0FF900336E0FCA3E02406120D74EF44
:1034D000F02290003CE0FC9001CFE06C602E900068
:1034E0003CE0FE9001CFF090000DE09001C6F0545A
:1034F0000FF0EEB42005E04420800AECB4100B90ED
:1035000001C6E04410F090000DF0C28A22E4F5B24A
:10351000F5BA758D20438D20538D7F53AAF7F58B17
:10352000E5DB20E21C900004E07016F58A75870345
:10353000000000758A5090027D04F090002B7420EA
:10354000F0758B112212082E53A87F12311D12081C
:1035500066123E8543A880120843123ED6EF24E04F
:10356000600A2410700AC283C2828004D283D2828D
:1035700012230212081E12216C80DF00000000FFDF
:10358000FFFFFF0000FFFFFFFFFFFFFFFFFF00FF48
:10359000000000FFFF000000FFFFFFFFFFFFFF0034
:1035A000000000FFFFFFFFFFFFFFFFFFFF00000025
:1035B00000900314EFF0E0240A123528E060037F46
:1035C0000122900314E0FF240A1235287401F0EF61
:1035D00012358D1234F9900314E012354CEEF0A33D
:1035E000EFF07F0022006000C700A000A000A00054
:1035F000A000A000A000A000A000A000A000A000CB
:1036000018008000B0009600960096009B009B007A
:103610009B008C008C008C758B11902F647440F093
:10362000E4FEE4FF1234E812351CE4F00FEFB40AB4
:10363000F30EEEB403EC7F0990030AE4F0A3DFFC81
:10364000902F647480F022CBEFCB123525E06024FC
:10365000123563EB12354C1235835018C3EF9DFFC2
:10366000EE9CFEEB12358D12356E4008123525E4C6
:10367000F07F01227F0022ED131313541FFEED543F
:1036800007FD1234E812351CC083C082E0FFCEED86
:10369000CE7401C8EEC8088002C333D8FCF45FD0F2
:1036A00082D083F022900336E0FFA3E090033CCF6A
:1036B000F0A3EFF0E4F5DA75DA4043DA2075D7408D
:1036C00075DA5875D90143A90875B80875F8082244
:1036D00001F40028002801F4009603E801F403E84F
:1036E0001770006403E80032012C012C012C01F456
:1036F00003E8271000C8E4FF900332E06015123C95
:1037000035F5828C83E0FE54F0FFEE540FF0E49028
:103710000332F022E5B230E005E5AA20E013E490A0
:1037200001A5F075B28E75B6F9F5B743B20143AA9B
:103730000122000000000000000000000000000066
:103740000000000000000000000000000000000079
:103750000000000000000000000000000000000069
:103760000000000000000000000000000000000059
:103770000000000000000000000000000000000049
:103780000000000000000000000000000000000039
:103790000000000000000000000000000000000029
:1037A0000000000000000000000000000000000019
:1037B0000000000000000000000000000000000009
:1037C00000000000000000000000000000000000F9
:1037D00000000000000000000000000000000000E9
:1037E00000000000000000000000000000000000D9
:1037F000000000000000000000000000000000AD1C
:1038000000000000000000000000000000000000B8
:1038100000000000000000000000000000000000A8
:00000001FF
